{
  "contractName": "ArbitrablePermissionList",
  "abi": [
    {
      "constant": true,
      "inputs": [],
      "name": "timeToChallenge",
      "outputs": [
        {
          "name": "",
          "type": "uint256"
        }
      ],
      "payable": false,
      "stateMutability": "view",
      "type": "function"
    },
    {
      "constant": true,
      "inputs": [],
      "name": "arbitratorExtraData",
      "outputs": [
        {
          "name": "",
          "type": "bytes"
        }
      ],
      "payable": false,
      "stateMutability": "view",
      "type": "function"
    },
    {
      "constant": false,
      "inputs": [
        {
          "name": "_disputeID",
          "type": "uint256"
        },
        {
          "name": "_ruling",
          "type": "uint256"
        }
      ],
      "name": "rule",
      "outputs": [],
      "payable": false,
      "stateMutability": "nonpayable",
      "type": "function"
    },
    {
      "constant": true,
      "inputs": [],
      "name": "stake",
      "outputs": [
        {
          "name": "",
          "type": "uint256"
        }
      ],
      "payable": false,
      "stateMutability": "view",
      "type": "function"
    },
    {
      "constant": true,
      "inputs": [
        {
          "name": "",
          "type": "uint256"
        }
      ],
      "name": "disputeIDToItem",
      "outputs": [
        {
          "name": "",
          "type": "bytes32"
        }
      ],
      "payable": false,
      "stateMutability": "view",
      "type": "function"
    },
    {
      "constant": true,
      "inputs": [
        {
          "name": "",
          "type": "bytes32"
        }
      ],
      "name": "items",
      "outputs": [
        {
          "name": "status",
          "type": "uint8"
        },
        {
          "name": "lastAction",
          "type": "uint256"
        },
        {
          "name": "submitter",
          "type": "address"
        },
        {
          "name": "challenger",
          "type": "address"
        },
        {
          "name": "balance",
          "type": "uint256"
        },
        {
          "name": "disputed",
          "type": "bool"
        },
        {
          "name": "disputeID",
          "type": "uint256"
        }
      ],
      "payable": false,
      "stateMutability": "view",
      "type": "function"
    },
    {
      "constant": true,
      "inputs": [],
      "name": "appendOnly",
      "outputs": [
        {
          "name": "",
          "type": "bool"
        }
      ],
      "payable": false,
      "stateMutability": "view",
      "type": "function"
    },
    {
      "constant": true,
      "inputs": [],
      "name": "arbitrator",
      "outputs": [
        {
          "name": "",
          "type": "address"
        }
      ],
      "payable": false,
      "stateMutability": "view",
      "type": "function"
    },
    {
      "constant": true,
      "inputs": [],
      "name": "blacklist",
      "outputs": [
        {
          "name": "",
          "type": "bool"
        }
      ],
      "payable": false,
      "stateMutability": "view",
      "type": "function"
    },
    {
      "constant": true,
      "inputs": [
        {
          "name": "",
          "type": "uint256"
        }
      ],
      "name": "itemsList",
      "outputs": [
        {
          "name": "",
          "type": "bytes32"
        }
      ],
      "payable": false,
      "stateMutability": "view",
      "type": "function"
    },
    {
      "inputs": [
        {
          "name": "_arbitrator",
          "type": "address"
        },
        {
          "name": "_arbitratorExtraData",
          "type": "bytes"
        },
        {
          "name": "_metaEvidence",
          "type": "string"
        },
        {
          "name": "_blacklist",
          "type": "bool"
        },
        {
          "name": "_appendOnly",
          "type": "bool"
        },
        {
          "name": "_stake",
          "type": "uint256"
        },
        {
          "name": "_timeToChallenge",
          "type": "uint256"
        }
      ],
      "payable": false,
      "stateMutability": "nonpayable",
      "type": "constructor"
    },
    {
      "anonymous": false,
      "inputs": [
        {
          "indexed": true,
          "name": "submitter",
          "type": "address"
        },
        {
          "indexed": true,
          "name": "challenger",
          "type": "address"
        },
        {
          "indexed": true,
          "name": "value",
          "type": "bytes32"
        },
        {
          "indexed": false,
          "name": "status",
          "type": "uint8"
        },
        {
          "indexed": false,
          "name": "disputed",
          "type": "bool"
        }
      ],
      "name": "ItemStatusChange",
      "type": "event"
    },
    {
      "anonymous": false,
      "inputs": [
        {
          "indexed": true,
          "name": "_arbitrator",
          "type": "address"
        },
        {
          "indexed": true,
          "name": "_disputeID",
          "type": "uint256"
        },
        {
          "indexed": false,
          "name": "_rulingOptions",
          "type": "string"
        }
      ],
      "name": "Dispute",
      "type": "event"
    },
    {
      "anonymous": false,
      "inputs": [
        {
          "indexed": true,
          "name": "_arbitrator",
          "type": "address"
        },
        {
          "indexed": true,
          "name": "_disputeID",
          "type": "uint256"
        },
        {
          "indexed": false,
          "name": "_ruling",
          "type": "uint256"
        }
      ],
      "name": "Ruling",
      "type": "event"
    },
    {
      "anonymous": false,
      "inputs": [
        {
          "indexed": true,
          "name": "_metaEvidenceID",
          "type": "uint256"
        },
        {
          "indexed": false,
          "name": "_evidence",
          "type": "string"
        }
      ],
      "name": "MetaEvidence",
      "type": "event"
    },
    {
      "anonymous": false,
      "inputs": [
        {
          "indexed": true,
          "name": "_arbitrator",
          "type": "address"
        },
        {
          "indexed": true,
          "name": "_disputeID",
          "type": "uint256"
        },
        {
          "indexed": false,
          "name": "_metaEvidenceID",
          "type": "uint256"
        }
      ],
      "name": "LinkMetaEvidence",
      "type": "event"
    },
    {
      "anonymous": false,
      "inputs": [
        {
          "indexed": true,
          "name": "_arbitrator",
          "type": "address"
        },
        {
          "indexed": true,
          "name": "_disputeID",
          "type": "uint256"
        },
        {
          "indexed": false,
          "name": "_party",
          "type": "address"
        },
        {
          "indexed": false,
          "name": "_evidence",
          "type": "string"
        }
      ],
      "name": "Evidence",
      "type": "event"
    },
    {
      "constant": false,
      "inputs": [
        {
          "name": "_value",
          "type": "bytes32"
        }
      ],
      "name": "requestRegistration",
      "outputs": [],
      "payable": true,
      "stateMutability": "payable",
      "type": "function"
    },
    {
      "constant": false,
      "inputs": [
        {
          "name": "_value",
          "type": "bytes32"
        }
      ],
      "name": "requestClearing",
      "outputs": [],
      "payable": true,
      "stateMutability": "payable",
      "type": "function"
    },
    {
      "constant": false,
      "inputs": [
        {
          "name": "_value",
          "type": "bytes32"
        }
      ],
      "name": "challengeRegistration",
      "outputs": [],
      "payable": true,
      "stateMutability": "payable",
      "type": "function"
    },
    {
      "constant": false,
      "inputs": [
        {
          "name": "_value",
          "type": "bytes32"
        }
      ],
      "name": "challengeClearing",
      "outputs": [],
      "payable": true,
      "stateMutability": "payable",
      "type": "function"
    },
    {
      "constant": false,
      "inputs": [
        {
          "name": "_value",
          "type": "bytes32"
        }
      ],
      "name": "appeal",
      "outputs": [],
      "payable": true,
      "stateMutability": "payable",
      "type": "function"
    },
    {
      "constant": false,
      "inputs": [
        {
          "name": "_value",
          "type": "bytes32"
        }
      ],
      "name": "executeRequest",
      "outputs": [],
      "payable": false,
      "stateMutability": "nonpayable",
      "type": "function"
    },
    {
      "constant": true,
      "inputs": [
        {
          "name": "_value",
          "type": "bytes32"
        }
      ],
      "name": "isPermitted",
      "outputs": [
        {
          "name": "allowed",
          "type": "bool"
        }
      ],
      "payable": false,
      "stateMutability": "view",
      "type": "function"
    },
    {
      "constant": true,
      "inputs": [],
      "name": "itemsCount",
      "outputs": [
        {
          "name": "count",
          "type": "uint256"
        }
      ],
      "payable": false,
      "stateMutability": "view",
      "type": "function"
    },
    {
      "constant": true,
      "inputs": [],
      "name": "itemsCounts",
      "outputs": [
        {
          "name": "pending",
          "type": "uint256"
        },
        {
          "name": "challenged",
          "type": "uint256"
        },
        {
          "name": "accepted",
          "type": "uint256"
        },
        {
          "name": "rejected",
          "type": "uint256"
        }
      ],
      "payable": false,
      "stateMutability": "view",
      "type": "function"
    },
    {
      "constant": true,
      "inputs": [
        {
          "name": "_cursor",
          "type": "bytes32"
        },
        {
          "name": "_count",
          "type": "uint256"
        },
        {
          "name": "_filter",
          "type": "bool[6]"
        },
        {
          "name": "_sort",
          "type": "bool"
        }
      ],
      "name": "queryItems",
      "outputs": [
        {
          "name": "values",
          "type": "bytes32[]"
        },
        {
          "name": "hasMore",
          "type": "bool"
        }
      ],
      "payable": false,
      "stateMutability": "view",
      "type": "function"
    }
  ],
  "bytecode": "0x60806040523480156200001157600080fd5b50604051620031fa380380620031fa833981018060405281019080805190602001909291908051820192919060200180518201929190602001805190602001909291908051906020019092919080519060200190929190805190602001909291905050508686816000806101000a81548173ffffffffffffffffffffffffffffffffffffffff021916908373ffffffffffffffffffffffffffffffffffffffff1602179055508060019080519060200190620000cf929190620001c2565b50505060007f61606860eb6c87306811e2695215385101daab53bd6ab4e9f9049aead9363c7d866040518080602001828103825283818151815260200191508051906020019080838360005b83811015620001385780820151818401526020810190506200011b565b50505050905090810190601f168015620001665780820380516001836020036101000a031916815260200191505b509250505060405180910390a283600260006101000a81548160ff02191690831515021790555082600260016101000a81548160ff02191690831515021790555081600381905550806004819055505050505050505062000271565b828054600181600116156101000203166002900490600052602060002090601f016020900481019282601f106200020557805160ff191683800117855562000236565b8280016001018555821562000236579182015b828111156200023557825182559160200191906001019062000218565b5b50905062000245919062000249565b5090565b6200026e91905b808211156200026a57600081600090555060010162000250565b5090565b90565b612f7980620002816000396000f300608060405260043610610112576000357c0100000000000000000000000000000000000000000000000000000000900463ffffffff1680630689d0ff146101175780630c7ac7b614610142578063311a6c56146101d2578063342d9a04146102095780633a4b66f11461022d578063409c88281461025857806348f343f3146102a1578063675629fe1461037a5780636cc6cde1146103a957806381a1fa02146104005780638e604b1d1461044057806393519d6614610516578063a4b5fa561461053a578063b783d6c714610569578063bc16272d1461058d578063beabdb7b146105b1578063c2bd9d95146105fa578063e2c03ace14610643578063e9c241661461066e578063ece1de441461069f575b600080fd5b34801561012357600080fd5b5061012c6106c3565b6040518082815260200191505060405180910390f35b34801561014e57600080fd5b506101576106c9565b6040518080602001828103825283818151815260200191508051906020019080838360005b8381101561019757808201518184015260208101905061017c565b50505050905090810190601f1680156101c45780820380516001836020036101000a031916815260200191505b509250505060405180910390f35b3480156101de57600080fd5b506102076004803603810190808035906020019092919080359060200190929190505050610767565b005b61022b600480360381019080803560001916906020019092919050505061081f565b005b34801561023957600080fd5b50610242610ed0565b6040518082815260200191505060405180910390f35b34801561026457600080fd5b5061028360048036038101908080359060200190929190505050610ed6565b60405180826000191660001916815260200191505060405180910390f35b3480156102ad57600080fd5b506102d06004803603810190808035600019169060200190929190505050610eee565b604051808860068111156102e057fe5b60ff1681526020018781526020018673ffffffffffffffffffffffffffffffffffffffff1673ffffffffffffffffffffffffffffffffffffffff1681526020018573ffffffffffffffffffffffffffffffffffffffff1673ffffffffffffffffffffffffffffffffffffffff1681526020018481526020018315151515815260200182815260200197505050505050505060405180910390f35b34801561038657600080fd5b5061038f610f8a565b604051808215151515815260200191505060405180910390f35b3480156103b557600080fd5b506103be610f9d565b604051808273ffffffffffffffffffffffffffffffffffffffff1673ffffffffffffffffffffffffffffffffffffffff16815260200191505060405180910390f35b34801561040c57600080fd5b50610415610fc2565b6040518085815260200184815260200183815260200182815260200194505050505060405180910390f35b34801561044c57600080fd5b506104b46004803603810190808035600019169060200190929190803590602001909291908060c00190600680602002604051908101604052809291908260066020028082843782019150505050509192919290803515159060200190929190505050611134565b604051808060200183151515158152602001828103825284818151815260200191508051906020019060200280838360005b838110156105015780820151818401526020810190506104e6565b50505050905001935050505060405180910390f35b61053860048036038101908080356000191690602001909291905050506115c5565b005b34801561054657600080fd5b5061054f6119b1565b604051808215151515815260200191505060405180910390f35b61058b60048036038101908080356000191690602001909291905050506119c4565b005b6105af6004803603810190808035600019169060200190929190505050612076565b005b3480156105bd57600080fd5b506105e06004803603810190808035600019169060200190929190505050612446565b604051808215151515815260200191505060405180910390f35b34801561060657600080fd5b5061062560048036038101908080359060200190929190505050612508565b60405180826000191660001916815260200191505060405180910390f35b34801561064f57600080fd5b5061065861252b565b6040518082815260200191505060405180910390f35b34801561067a57600080fd5b5061069d6004803603810190808035600019169060200190929190505050612538565b005b6106c160048036038101908080356000191690602001909291905050506127fb565b005b60045481565b60018054600181600116156101000203166002900480601f01602080910402602001604051908101604052809291908181526020018280546001816001161561010002031660029004801561075f5780601f106107345761010080835404028352916020019161075f565b820191906000526020600020905b81548152906001019060200180831161074257829003601f168201915b505050505081565b6000809054906101000a900473ffffffffffffffffffffffffffffffffffffffff1673ffffffffffffffffffffffffffffffffffffffff163373ffffffffffffffffffffffffffffffffffffffff161415156107c257600080fd5b813373ffffffffffffffffffffffffffffffffffffffff167f394027a5fa6e098a1191094d1719d6929b9abc535fcc0c8f448d6a4e75622276836040518082815260200191505060405180910390a361081b8282612956565b5050565b60008060056000846000191660001916815260200190815260200160002091506000809054906101000a900473ffffffffffffffffffffffffffffffffffffffff1673ffffffffffffffffffffffffffffffffffffffff1663f7434ea960016040518263ffffffff167c010000000000000000000000000000000000000000000000000000000002815260040180806020018281038252838181546001816001161561010002031660029004815260200191508054600181600116156101000203166002900480156109325780601f1061090757610100808354040283529160200191610932565b820191906000526020600020905b81548152906001019060200180831161091557829003601f168201915b505092505050602060405180830381600087803b15801561095257600080fd5b505af1158015610966573d6000803e3d6000fd5b505050506040513d602081101561097c57600080fd5b81019080805190602001909291905050509050806003540134101515156109a257600080fd5b600560068111156109af57fe5b8260000160009054906101000a900460ff1660068111156109cc57fe5b14806109fe57506006808111156109df57fe5b8260000160009054906101000a900460ff1660068111156109fc57fe5b145b1515610a0957600080fd5b8160050160009054906101000a900460ff16151515610a2757600080fd5b808260040154101515610ca257338260030160006101000a81548173ffffffffffffffffffffffffffffffffffffffff021916908373ffffffffffffffffffffffffffffffffffffffff160217905550803403826004016000828254019250508190555060018260050160006101000a81548160ff0219169083151502179055506000809054906101000a900473ffffffffffffffffffffffffffffffffffffffff1673ffffffffffffffffffffffffffffffffffffffff1663c13517e182600260016040518463ffffffff167c01000000000000000000000000000000000000000000000000000000000281526004018083815260200180602001828103825283818154600181600116156101000203166002900481526020019150805460018160011615610100020316600290048015610ba45780601f10610b7957610100808354040283529160200191610ba4565b820191906000526020600020905b815481529060010190602001808311610b8757829003601f168201915b505093505050506020604051808303818588803b158015610bc457600080fd5b505af1158015610bd8573d6000803e3d6000fd5b50505050506040513d6020811015610bef57600080fd5b81019080805190602001909291905050508260060181905550826006600084600601548152602001908152602001600020816000191690555081600601546000809054906101000a900473ffffffffffffffffffffffffffffffffffffffff1673ffffffffffffffffffffffffffffffffffffffff167f21da1f02e8071a7680b73ad6e5bc1aee1f8f0620a0a08a0333be1f0ca9dd7fec60006040518082815260200191505060405180910390a3610dd4565b60056006811115610caf57fe5b8260000160009054906101000a900460ff166006811115610ccc57fe5b1415610cfd5760038260000160006101000a81548160ff02191690836006811115610cf357fe5b0217905550610d24565b60008260000160006101000a81548160ff02191690836006811115610d1e57fe5b02179055505b8160020160009054906101000a900473ffffffffffffffffffffffffffffffffffffffff1673ffffffffffffffffffffffffffffffffffffffff166108fc83600401549081150290604051600060405180830381858888f1935050505050600082600401819055503373ffffffffffffffffffffffffffffffffffffffff166108fc349081150290604051600060405180830381858888f19350505050158015610dd2573d6000803e3d6000fd5b505b42826001018190555082600019168260030160009054906101000a900473ffffffffffffffffffffffffffffffffffffffff1673ffffffffffffffffffffffffffffffffffffffff168360020160009054906101000a900473ffffffffffffffffffffffffffffffffffffffff1673ffffffffffffffffffffffffffffffffffffffff167fa4beab79462e336293c2f229498d5942d3b4642806ab2820d6b7846d42d7e21a8560000160009054906101000a900460ff168660050160009054906101000a900460ff1660405180836006811115610ead57fe5b60ff168152602001821515151581526020019250505060405180910390a4505050565b60035481565b60066020528060005260406000206000915090505481565b60056020528060005260406000206000915090508060000160009054906101000a900460ff16908060010154908060020160009054906101000a900473ffffffffffffffffffffffffffffffffffffffff16908060030160009054906101000a900473ffffffffffffffffffffffffffffffffffffffff16908060040154908060050160009054906101000a900460ff16908060060154905087565b600260019054906101000a900460ff1681565b6000809054906101000a900473ffffffffffffffffffffffffffffffffffffffff1681565b600080600080600080600091505b60078054905082101561112c5760056000600784815481101515610ff057fe5b90600052602060002001546000191660001916815260200190815260200160002090508060050160009054906101000a900460ff161561103757848060010195505061111f565b6002600681111561104457fe5b8160000160009054906101000a900460ff16600681111561106157fe5b148061109457506004600681111561107557fe5b8160000160009054906101000a900460ff16600681111561109257fe5b145b156110a657858060010196505061111e565b600360068111156110b357fe5b8160000160009054906101000a900460ff1660068111156110d057fe5b14156110e357838060010194505061111d565b600160068111156110f057fe5b8160000160009054906101000a900460ff16600681111561110d57fe5b141561111c5782806001019350505b5b5b5b8180600101925050610fd0565b505090919293565b60606000806000806000808960405190808252806020026020018201604052801561116e5781602001602082028038833980820191505090505b5096506000935060006001028b60001916141561118e57600094506111ef565b600092505b6007805490508310156111de578a600019166007848154811015156111b457fe5b90600052602060002001546000191614156111d1578294506111de565b8280600101935050611193565b600085141515156111ee57600080fd5b5b60008514611216578761120c576001856007805490500301611211565b600185015b611229565b87611222576001611225565b60005b60ff165b91505b8761123f57600780549050821115611248565b60078054905082105b156115b7576005600060078a611265578460078054905003611267565b845b81548110151561127357fe5b9060005260206000200154600019166000191681526020019081526020016000209050600060068111156112a357fe5b8160000160009054906101000a900460ff1660068111156112c057fe5b141580156112f557506006808111156112d557fe5b8160000160009054906101000a900460ff1660068111156112f257fe5b14155b8015611533575088600060068110151561130b57fe5b6020020151801561137557506002600681111561132457fe5b8160000160009054906101000a900460ff16600681111561134157fe5b148061137457506004600681111561135557fe5b8160000160009054906101000a900460ff16600681111561137257fe5b145b5b806113aa575088600160068110151561138a57fe5b602002015180156113a957508060050160009054906101000a900460ff165b5b806113f857508860026006811015156113bf57fe5b602002015180156113f75750600360068111156113d857fe5b8160000160009054906101000a900460ff1660068111156113f557fe5b145b5b80611446575088600360068110151561140d57fe5b6020020151801561144557506001600681111561142657fe5b8160000160009054906101000a900460ff16600681111561144357fe5b145b5b806114bc575088600460068110151561145b57fe5b602002015180156114bb57503373ffffffffffffffffffffffffffffffffffffffff168160020160009054906101000a900473ffffffffffffffffffffffffffffffffffffffff1673ffffffffffffffffffffffffffffffffffffffff16145b5b8061153257508860056006811015156114d157fe5b6020020151801561153157503373ffffffffffffffffffffffffffffffffffffffff168160030160009054906101000a900473ffffffffffffffffffffffffffffffffffffffff1673ffffffffffffffffffffffffffffffffffffffff16145b5b5b156115aa57898410156115a057600788611554578260078054905003611556565b825b81548110151561156257fe5b9060005260206000200154878581518110151561157b57fe5b90602001906020020190600019169081600019168152505083806001019450506115a9565b600195506115b7565b5b818060010192505061122c565b505050505094509492505050565b60008060056000846000191660001916815260200190815260200160002091506000809054906101000a900473ffffffffffffffffffffffffffffffffffffffff1673ffffffffffffffffffffffffffffffffffffffff1663f7434ea960016040518263ffffffff167c010000000000000000000000000000000000000000000000000000000002815260040180806020018281038252838181546001816001161561010002031660029004815260200191508054600181600116156101000203166002900480156116d85780601f106116ad576101008083540402835291602001916116d8565b820191906000526020600020905b8154815290600101906020018083116116bb57829003601f168201915b505092505050602060405180830381600087803b1580156116f857600080fd5b505af115801561170c573d6000803e3d6000fd5b505050506040513d602081101561172257600080fd5b81019080805190602001909291905050509050600260019054906101000a900460ff1615151561175157600080fd5b8060035401341015151561176457600080fd5b6003600681111561177157fe5b8260000160009054906101000a900460ff16600681111561178e57fe5b14156117bf5760058260000160006101000a81548160ff021916908360068111156117b557fe5b0217905550611820565b600060068111156117cc57fe5b8260000160009054906101000a900460ff1660068111156117e957fe5b141561181a5760068260000160006101000a81548160ff0219169083600681111561181057fe5b021790555061181f565b600080fd5b5b6000826001015414156118605760078390806001815401808255809150509060018203906000526020600020016000909192909190915090600019169055505b338260020160006101000a81548173ffffffffffffffffffffffffffffffffffffffff021916908373ffffffffffffffffffffffffffffffffffffffff16021790555034826004016000828254019250508190555042826001018190555082600019168260030160009054906101000a900473ffffffffffffffffffffffffffffffffffffffff1673ffffffffffffffffffffffffffffffffffffffff168360020160009054906101000a900473ffffffffffffffffffffffffffffffffffffffff1673ffffffffffffffffffffffffffffffffffffffff167fa4beab79462e336293c2f229498d5942d3b4642806ab2820d6b7846d42d7e21a8560000160009054906101000a900460ff168660050160009054906101000a900460ff166040518083600681111561198e57fe5b60ff168152602001821515151581526020019250505060405180910390a4505050565b600260009054906101000a900460ff1681565b60008060056000846000191660001916815260200190815260200160002091506000809054906101000a900473ffffffffffffffffffffffffffffffffffffffff1673ffffffffffffffffffffffffffffffffffffffff1663f7434ea960016040518263ffffffff167c01000000000000000000000000000000000000000000000000000000000281526004018080602001828103825283818154600181600116156101000203166002900481526020019150805460018160011615610100020316600290048015611ad75780601f10611aac57610100808354040283529160200191611ad7565b820191906000526020600020905b815481529060010190602001808311611aba57829003601f168201915b505092505050602060405180830381600087803b158015611af757600080fd5b505af1158015611b0b573d6000803e3d6000fd5b505050506040513d6020811015611b2157600080fd5b8101908080519060200190929190505050905080600354013410151515611b4757600080fd5b60026006811115611b5457fe5b8260000160009054906101000a900460ff166006811115611b7157fe5b1480611ba4575060046006811115611b8557fe5b8260000160009054906101000a900460ff166006811115611ba257fe5b145b1515611baf57600080fd5b8160050160009054906101000a900460ff16151515611bcd57600080fd5b808260040154101515611e4857338260030160006101000a81548173ffffffffffffffffffffffffffffffffffffffff021916908373ffffffffffffffffffffffffffffffffffffffff160217905550803403826004016000828254019250508190555060018260050160006101000a81548160ff0219169083151502179055506000809054906101000a900473ffffffffffffffffffffffffffffffffffffffff1673ffffffffffffffffffffffffffffffffffffffff1663c13517e182600260016040518463ffffffff167c01000000000000000000000000000000000000000000000000000000000281526004018083815260200180602001828103825283818154600181600116156101000203166002900481526020019150805460018160011615610100020316600290048015611d4a5780601f10611d1f57610100808354040283529160200191611d4a565b820191906000526020600020905b815481529060010190602001808311611d2d57829003601f168201915b505093505050506020604051808303818588803b158015611d6a57600080fd5b505af1158015611d7e573d6000803e3d6000fd5b50505050506040513d6020811015611d9557600080fd5b81019080805190602001909291905050508260060181905550826006600084600601548152602001908152602001600020816000191690555081600601546000809054906101000a900473ffffffffffffffffffffffffffffffffffffffff1673ffffffffffffffffffffffffffffffffffffffff167f21da1f02e8071a7680b73ad6e5bc1aee1f8f0620a0a08a0333be1f0ca9dd7fec60006040518082815260200191505060405180910390a3611f7a565b60026006811115611e5557fe5b8260000160009054906101000a900460ff166006811115611e7257fe5b1415611ea35760018260000160006101000a81548160ff02191690836006811115611e9957fe5b0217905550611eca565b60008260000160006101000a81548160ff02191690836006811115611ec457fe5b02179055505b8160020160009054906101000a900473ffffffffffffffffffffffffffffffffffffffff1673ffffffffffffffffffffffffffffffffffffffff166108fc83600401549081150290604051600060405180830381858888f1935050505050600082600401819055503373ffffffffffffffffffffffffffffffffffffffff166108fc349081150290604051600060405180830381858888f19350505050158015611f78573d6000803e3d6000fd5b505b42826001018190555082600019168260030160009054906101000a900473ffffffffffffffffffffffffffffffffffffffff1673ffffffffffffffffffffffffffffffffffffffff168360020160009054906101000a900473ffffffffffffffffffffffffffffffffffffffff1673ffffffffffffffffffffffffffffffffffffffff167fa4beab79462e336293c2f229498d5942d3b4642806ab2820d6b7846d42d7e21a8560000160009054906101000a900460ff168660050160009054906101000a900460ff166040518083600681111561205357fe5b60ff168152602001821515151581526020019250505060405180910390a4505050565b60008060056000846000191660001916815260200190815260200160002091506000809054906101000a900473ffffffffffffffffffffffffffffffffffffffff1673ffffffffffffffffffffffffffffffffffffffff1663f7434ea960016040518263ffffffff167c010000000000000000000000000000000000000000000000000000000002815260040180806020018281038252838181546001816001161561010002031660029004815260200191508054600181600116156101000203166002900480156121895780601f1061215e57610100808354040283529160200191612189565b820191906000526020600020905b81548152906001019060200180831161216c57829003601f168201915b505092505050602060405180830381600087803b1580156121a957600080fd5b505af11580156121bd573d6000803e3d6000fd5b505050506040513d60208110156121d357600080fd5b81019080805190602001909291905050509050806003540134101515156121f957600080fd5b6000600681111561220657fe5b8260000160009054906101000a900460ff16600681111561222357fe5b14156122545760048260000160006101000a81548160ff0219169083600681111561224a57fe5b02179055506122b5565b6001600681111561226157fe5b8260000160009054906101000a900460ff16600681111561227e57fe5b14156122af5760028260000160006101000a81548160ff021916908360068111156122a557fe5b02179055506122b4565b600080fd5b5b6000826001015414156122f55760078390806001815401808255809150509060018203906000526020600020016000909192909190915090600019169055505b338260020160006101000a81548173ffffffffffffffffffffffffffffffffffffffff021916908373ffffffffffffffffffffffffffffffffffffffff16021790555034826004016000828254019250508190555042826001018190555082600019168260030160009054906101000a900473ffffffffffffffffffffffffffffffffffffffff1673ffffffffffffffffffffffffffffffffffffffff168360020160009054906101000a900473ffffffffffffffffffffffffffffffffffffffff1673ffffffffffffffffffffffffffffffffffffffff167fa4beab79462e336293c2f229498d5942d3b4642806ab2820d6b7846d42d7e21a8560000160009054906101000a900460ff168660050160009054906101000a900460ff166040518083600681111561242357fe5b60ff168152602001821515151581526020019250505060405180910390a4505050565b600080600060056000856000191660001916815260200190815260200160002091506002600681111561247557fe5b8260000160009054906101000a900460ff16600681111561249257fe5b1115806124e057506006808111156124a657fe5b8260000160009054906101000a900460ff1660068111156124c357fe5b1480156124df57508160050160009054906101000a900460ff16155b5b9050600260009054906101000a900460ff166124fd5780156124ff565b805b92505050919050565b60078181548110151561251757fe5b906000526020600020016000915090505481565b6000600780549050905090565b60006005600083600019166000191681526020019081526020016000209050600454816001015442031015151561256e57600080fd5b8060050160009054906101000a900460ff1615151561258c57600080fd5b6002600681111561259957fe5b8160000160009054906101000a900460ff1660068111156125b657fe5b14806125e95750600460068111156125ca57fe5b8160000160009054906101000a900460ff1660068111156125e757fe5b145b156126195760038160000160006101000a81548160ff0219169083600681111561260f57fe5b02179055506126ab565b6005600681111561262657fe5b8160000160009054906101000a900460ff16600681111561264357fe5b1480612675575060068081111561265657fe5b8160000160009054906101000a900460ff16600681111561267357fe5b145b156126a55760018160000160006101000a81548160ff0219169083600681111561269b57fe5b02179055506126aa565b600080fd5b5b8060020160009054906101000a900473ffffffffffffffffffffffffffffffffffffffff1673ffffffffffffffffffffffffffffffffffffffff166108fc82600401549081150290604051600060405180830381858888f193505050505081600019168160030160009054906101000a900473ffffffffffffffffffffffffffffffffffffffff1673ffffffffffffffffffffffffffffffffffffffff168260020160009054906101000a900473ffffffffffffffffffffffffffffffffffffffff1673ffffffffffffffffffffffffffffffffffffffff167fa4beab79462e336293c2f229498d5942d3b4642806ab2820d6b7846d42d7e21a8460000160009054906101000a900460ff168560050160009054906101000a900460ff16604051808360068111156127d957fe5b60ff168152602001821515151581526020019250505060405180910390a45050565b600060056000836000191660001916815260200190815260200160002090506000809054906101000a900473ffffffffffffffffffffffffffffffffffffffff1673ffffffffffffffffffffffffffffffffffffffff166349912f8834836006015460016040518463ffffffff167c010000000000000000000000000000000000000000000000000000000002815260040180838152602001806020018281038252838181546001816001161561010002031660029004815260200191508054600181600116156101000203166002900480156129195780601f106128ee57610100808354040283529160200191612919565b820191906000526020600020905b8154815290600101906020018083116128fc57829003601f168201915b505093505050506000604051808303818588803b15801561293957600080fd5b505af115801561294d573d6000803e3d6000fd5b50505050505050565b60006005600060066000868152602001908152602001600020546000191660001916815260200190815260200160002090508060050160009054906101000a900460ff1615156129a557600080fd5b600160ff16821415612b0057600260068111156129be57fe5b8160000160009054906101000a900460ff1660068111156129db57fe5b1480612a0e5750600460068111156129ef57fe5b8160000160009054906101000a900460ff166006811115612a0c57fe5b145b15612a76578060020160009054906101000a900473ffffffffffffffffffffffffffffffffffffffff1673ffffffffffffffffffffffffffffffffffffffff166108fc82600401549081150290604051600060405180830381858888f1935050505050612ad5565b8060030160009054906101000a900473ffffffffffffffffffffffffffffffffffffffff1673ffffffffffffffffffffffffffffffffffffffff166108fc82600401549081150290604051600060405180830381858888f19350505050505b60038160000160006101000a81548160ff02191690836006811115612af657fe5b0217905550612e20565b600260ff16821415612c5a57600680811115612b1857fe5b8160000160009054906101000a900460ff166006811115612b3557fe5b1480612b68575060056006811115612b4957fe5b8160000160009054906101000a900460ff166006811115612b6657fe5b145b15612bd0578060020160009054906101000a900473ffffffffffffffffffffffffffffffffffffffff1673ffffffffffffffffffffffffffffffffffffffff166108fc82600401549081150290604051600060405180830381858888f1935050505050612c2f565b8060030160009054906101000a900473ffffffffffffffffffffffffffffffffffffffff1673ffffffffffffffffffffffffffffffffffffffff166108fc82600401549081150290604051600060405180830381858888f19350505050505b60018160000160006101000a81548160ff02191690836006811115612c5057fe5b0217905550612e1f565b60026006811115612c6757fe5b8160000160009054906101000a900460ff166006811115612c8457fe5b1415612cbb5760016006811115612c9757fe5b8160000160009054906101000a900460ff166006811115612cb457fe5b5050612d4a565b60056006811115612cc857fe5b8160000160009054906101000a900460ff166006811115612ce557fe5b1415612d1c5760046006811115612cf857fe5b8160000160009054906101000a900460ff166006811115612d1557fe5b5050612d49565b60006006811115612d2957fe5b8160000160009054906101000a900460ff166006811115612d4657fe5b50505b5b8060020160009054906101000a900473ffffffffffffffffffffffffffffffffffffffff1673ffffffffffffffffffffffffffffffffffffffff166108fc60028360040154811515612d9857fe5b049081150290604051600060405180830381858888f19350505050508060030160009054906101000a900473ffffffffffffffffffffffffffffffffffffffff1673ffffffffffffffffffffffffffffffffffffffff166108fc60028360040154811515612e0257fe5b049081150290604051600060405180830381858888f19350505050505b5b60008160050160006101000a81548160ff021916908315150217905550600081600401819055506006600084815260200190815260200160002054600019168160030160009054906101000a900473ffffffffffffffffffffffffffffffffffffffff1673ffffffffffffffffffffffffffffffffffffffff168260020160009054906101000a900473ffffffffffffffffffffffffffffffffffffffff1673ffffffffffffffffffffffffffffffffffffffff167fa4beab79462e336293c2f229498d5942d3b4642806ab2820d6b7846d42d7e21a8460000160009054906101000a900460ff168560050160009054906101000a900460ff1660405180836006811115612f2a57fe5b60ff168152602001821515151581526020019250505060405180910390a45050505600a165627a7a72305820bcf68560d204025ff46b33d57b9d0c35441cb1ae44e8d73f4330b050e18fd46d0029",
  "source": " /**\n *  @title Arbitrable Permission List\n *  @author Clment Lesaege - <clement@lesaege.com>\n *  This code hasn't undertaken bug bounty programs yet.\n */\n\npragma solidity ^0.4.23;\n\nimport \"../arbitration/Arbitrable.sol\";\nimport \"./PermissionInterface.sol\";\n\n/**\n *  @title Arbitrable Permission List\n *  @dev This is an arbitrator curated registry. Anyone can post an item with a deposit. If no one complains within a defined time period, the item is added to the registry.\n *  Anyone can complain and also post a deposit. If someone does, a dispute is created. The winner of the dispute gets the deposit of the other party and the item is added or removed accordingly.\n *  To make a request, parties have to deposit a stake and the arbitration fees. If the arbitration fees change between the submitter's payment and the challenger's payment, a part of the submitter stake can be used as an arbitration fee deposit.\n *  In case the arbitrator refuses to rule, the item is put in the initial absent status and the balance is split equally between parties.\n */\ncontract ArbitrablePermissionList is PermissionInterface, Arbitrable {\n    /* Enums */\n\n    enum ItemStatus {\n        Absent, // The item has never been submitted.\n        Cleared, // The item has been submitted and the dispute resolution process determined it should not be added or a clearing request has been submitted and not contested.\n        Resubmitted, // The item has been cleared but someone has resubmitted it.\n        Registered, // The item has been submitted and the dispute resolution process determined it should be added or the submission was never contested.\n        Submitted, // The item has been submitted.\n        ClearingRequested, // The item is registered, but someone has requested to remove it.\n        PreventiveClearingRequested // The item has never been registered, but someone asked to clear it preemptively to avoid it being shown as not registered during the dispute resolution process.\n    }\n\n    /* Structs */\n\n    struct Item {\n        ItemStatus status; // Status of the item.\n        uint lastAction; // Time of the last action.\n        address submitter; // Address of the submitter of the item status change request, if any.\n        address challenger; // Address of the challenger, if any.\n        uint balance; // The total amount of funds to be given to the winner of a potential dispute. Includes stake and reimbursement of arbitration fees.\n        bool disputed; // True if a dispute is taking place.\n        uint disputeID; // ID of the dispute, if any.\n    }\n\n    /* Events */\n\n    /**\n     *  @dev Called when the item's status changes or when it is contested/resolved.\n     *  @param submitter Address of the submitter, if any.\n     *  @param challenger Address of the challenger, if any.\n     *  @param value The value of the item.\n     *  @param status The status of the item.\n     *  @param disputed The item is being disputed.\n     */\n    event ItemStatusChange(\n        address indexed submitter,\n        address indexed challenger,\n        bytes32 indexed value,\n        ItemStatus status,\n        bool disputed\n    );\n\n    /* Storage */\n\n    // Settings\n    bool public blacklist; // True if the list should function as a blacklist, false if it should function as a whitelist.\n    bool public appendOnly; // True if the list should be append only.\n    uint public stake; // The stake to put to submit/clear/challenge and item in addition of arbitration fees.\n    uint public timeToChallenge; // The time before which an action is executable if not challenged.\n\n    // Ruling Options\n    uint8 constant REGISTER = 1;\n    uint8 constant CLEAR = 2;\n\n    // Items\n    mapping(bytes32 => Item) public items;\n    mapping(uint => bytes32) public disputeIDToItem;\n    bytes32[] public itemsList;\n\n    /* Constructor */\n\n    /**\n     *  @dev Constructs the arbitrable permission list and sets the type.\n     *  @param _arbitrator The chosen arbitrator.\n     *  @param _arbitratorExtraData Extra data for the arbitrator contract.\n     *  @param _metaEvidence The URL of the meta evidence object.\n     *  @param _blacklist True if the list should function as a blacklist, false if it should function as a whitelist.\n     *  @param _appendOnly True if the list should be append only.\n     *  @param _stake The amount in Weis of deposit required for a submission or a challenge in addition of the arbitration fees.\n     *  @param _timeToChallenge The time in seconds, other parties have to challenge.\n     */\n    constructor(\n        Arbitrator _arbitrator,\n        bytes _arbitratorExtraData,\n        string _metaEvidence,\n        bool _blacklist,\n        bool _appendOnly,\n        uint _stake,\n        uint _timeToChallenge) Arbitrable(_arbitrator, _arbitratorExtraData) public {\n        emit MetaEvidence(0, _metaEvidence);\n        blacklist = _blacklist;\n        appendOnly = _appendOnly;\n        stake = _stake;\n        timeToChallenge = _timeToChallenge;\n    }\n\n    /* Public */\n\n    /**\n     *  @dev Request for an item to be registered.\n     *  @param _value The value of the item to register.\n     */\n    function requestRegistration(bytes32 _value) public payable {\n        Item storage item = items[_value];\n        uint arbitratorCost = arbitrator.arbitrationCost(arbitratorExtraData);\n        require(msg.value >= stake + arbitratorCost);\n\n        if (item.status == ItemStatus.Absent)\n            item.status = ItemStatus.Submitted;\n        else if (item.status == ItemStatus.Cleared)\n            item.status = ItemStatus.Resubmitted;\n        else\n            revert(); // If the item is neither Absent nor Cleared, it is not possible to request registering it.\n\n        if (item.lastAction == 0) {\n            itemsList.push(_value);\n        }\n\n        item.submitter = msg.sender;\n        item.balance += msg.value;\n        item.lastAction = now;\n\n        emit ItemStatusChange(item.submitter, item.challenger, _value, item.status, item.disputed);\n    }\n\n    /**\n     *  @dev Request an item to be cleared.\n     *  @param _value The value of the item to clear.\n     */\n    function requestClearing(bytes32 _value) public payable {\n        Item storage item = items[_value];\n        uint arbitratorCost = arbitrator.arbitrationCost(arbitratorExtraData);\n        require(!appendOnly);\n        require(msg.value >= stake + arbitratorCost);\n\n        if (item.status == ItemStatus.Registered)\n            item.status = ItemStatus.ClearingRequested;\n        else if (item.status == ItemStatus.Absent)\n            item.status = ItemStatus.PreventiveClearingRequested;\n        else\n            revert(); // If the item is neither Registered nor Absent, it is not possible to request clearing it.\n        \n        if (item.lastAction == 0) {\n            itemsList.push(_value);\n        }\n\n        item.submitter = msg.sender;\n        item.balance += msg.value;\n        item.lastAction = now;\n\n        emit ItemStatusChange(item.submitter, item.challenger, _value, item.status, item.disputed);\n    }\n\n    /**\n     *  @dev Challenge a registration request.\n     *  @param _value The value of the item subject to the registering request.\n     */\n    function challengeRegistration(bytes32 _value) public payable {\n        Item storage item = items[_value];\n        uint arbitratorCost = arbitrator.arbitrationCost(arbitratorExtraData);\n        require(msg.value >= stake + arbitratorCost);\n        require(item.status == ItemStatus.Resubmitted || item.status == ItemStatus.Submitted);\n        require(!item.disputed);\n\n        if (item.balance >= arbitratorCost) { // In the general case, create a dispute.\n            item.challenger = msg.sender;\n            item.balance += msg.value-arbitratorCost;\n            item.disputed = true;\n            item.disputeID = arbitrator.createDispute.value(arbitratorCost)(2,arbitratorExtraData);\n            disputeIDToItem[item.disputeID] = _value;\n            emit LinkMetaEvidence(arbitrator, item.disputeID, 0);\n        } else { // In the case the arbitration fees increased so much that the deposit of the requester is not high enough. Cancel the request.\n            if (item.status == ItemStatus.Resubmitted)\n                item.status = ItemStatus.Cleared;\n            else\n                item.status = ItemStatus.Absent;\n\n            item.submitter.send(item.balance); // Deliberate use of send in order to not block the contract in case of reverting fallback.\n            item.balance = 0;\n            msg.sender.transfer(msg.value);\n        }\n\n        item.lastAction = now;\n\n        emit ItemStatusChange(item.submitter, item.challenger, _value, item.status, item.disputed);\n    }\n\n    /**\n     *  @dev Challenge a clearing request.\n     *  @param _value The value of the item subject to the clearing request.\n     */\n    function challengeClearing(bytes32 _value) public payable {\n        Item storage item = items[_value];\n        uint arbitratorCost = arbitrator.arbitrationCost(arbitratorExtraData);\n        require(msg.value >= stake + arbitratorCost);\n        require(item.status == ItemStatus.ClearingRequested || item.status == ItemStatus.PreventiveClearingRequested);\n        require(!item.disputed);\n\n        if (item.balance >= arbitratorCost) { // In the general case, create a dispute.\n            item.challenger = msg.sender;\n            item.balance += msg.value-arbitratorCost;\n            item.disputed = true;\n            item.disputeID = arbitrator.createDispute.value(arbitratorCost)(2,arbitratorExtraData);\n            disputeIDToItem[item.disputeID] = _value;\n            emit LinkMetaEvidence(arbitrator, item.disputeID, 0);\n        } else { // In the case the arbitration fees increased so much that the deposit of the requester is not high enough. Cancel the request.\n            if (item.status == ItemStatus.ClearingRequested)\n                item.status = ItemStatus.Registered;\n            else\n                item.status = ItemStatus.Absent;\n\n            item.submitter.send(item.balance); // Deliberate use of send in order to not block the contract in case of reverting fallback.\n            item.balance = 0;\n            msg.sender.transfer(msg.value);\n        }\n\n        item.lastAction = now;\n\n        emit ItemStatusChange(item.submitter, item.challenger, _value, item.status, item.disputed);\n    }\n\n    /**\n     *  @dev Appeal ruling. Anyone can appeal to prevent a malicious actor from challenging its own submission and loosing on purpose.\n     *  @param _value The value of the item with the dispute to appeal on.\n     */\n    function appeal(bytes32 _value) public payable {\n        Item storage item = items[_value];\n        arbitrator.appeal.value(msg.value)(item.disputeID,arbitratorExtraData); // Appeal, no need to check anything as the arbitrator does it.\n    }\n\n    /**\n     *  @dev Execute a request after the time for challenging it has passed. Can be called by anyone.\n     *  @param _value The value of the item with the request to execute.\n     */\n    function executeRequest(bytes32 _value) public {\n        Item storage item = items[_value];\n        require(now - item.lastAction >= timeToChallenge);\n        require(!item.disputed);\n\n        if (item.status == ItemStatus.Resubmitted || item.status == ItemStatus.Submitted)\n            item.status = ItemStatus.Registered;\n        else if (item.status == ItemStatus.ClearingRequested || item.status == ItemStatus.PreventiveClearingRequested)\n            item.status = ItemStatus.Cleared;\n        else\n            revert();\n\n        item.submitter.send(item.balance); // Deliberate use of send in order to not block the contract in case of reverting fallback.\n\n        emit ItemStatusChange(item.submitter, item.challenger, _value, item.status, item.disputed);\n    }\n\n    /* Public Views */\n\n    /**\n     *  @dev Return true if the item is allowed. \n     *  We consider the item to be in the list if its status is contested and it has not won a dispute previously.\n     *  @param _value The value of the item to check.\n     *  @return allowed True if the item is allowed, false otherwise.\n     */\n    function isPermitted(bytes32 _value) public view returns (bool allowed) {\n        Item storage item = items[_value];\n        bool _excluded = item.status <= ItemStatus.Resubmitted ||\n            (item.status == ItemStatus.PreventiveClearingRequested && !item.disputed);\n        return blacklist ? _excluded : !_excluded; // Items excluded from blacklist should return true.\n    }\n\n    /* Internal */\n\n    /**\n     *  @dev Execute the ruling of a dispute.\n     *  @param _disputeID ID of the dispute in the Arbitrator contract.\n     *  @param _ruling Ruling given by the arbitrator. Note that 0 is reserved for \"Not able/wanting to make a decision\".\n     */\n    function executeRuling(uint _disputeID, uint _ruling) internal {\n        Item storage item = items[disputeIDToItem[_disputeID]];\n        require(item.disputed);\n\n        if (_ruling == REGISTER) {\n            if (item.status == ItemStatus.Resubmitted || item.status == ItemStatus.Submitted)\n                item.submitter.send(item.balance); // Deliberate use of send in order to not block the contract in case of reverting fallback.\n            else\n                item.challenger.send(item.balance);\n\n            item.status = ItemStatus.Registered;\n        } else if (_ruling == CLEAR) {\n            if (item.status == ItemStatus.PreventiveClearingRequested || item.status == ItemStatus.ClearingRequested)\n                item.submitter.send(item.balance);\n            else\n                item.challenger.send(item.balance);\n\n            item.status = ItemStatus.Cleared;\n        } else { // Split the balance 50-50 and give the item the initial status.\n            if (item.status==ItemStatus.Resubmitted)\n                item.status==ItemStatus.Cleared;\n            else if (item.status==ItemStatus.ClearingRequested)\n                item.status==ItemStatus.Submitted;\n            else\n                item.status==ItemStatus.Absent;\n            item.submitter.send(item.balance / 2);\n            item.challenger.send(item.balance / 2);\n        }\n\n        item.disputed = false;\n        item.balance = 0;\n\n        emit ItemStatusChange(item.submitter, item.challenger, disputeIDToItem[_disputeID], item.status, item.disputed);\n    }\n\n    /* Interface Views */\n\n    /**\n     *  @dev Return the number of items in the list.\n     *  @return The number of items in the list.\n     */\n    function itemsCount() public view returns (uint count) {\n        count = itemsList.length;\n    }\n\n    /**\n     *  @dev Return the numbers of items in the list per status.\n     *  @return The numbers of items in the list per status.\n     */\n    function itemsCounts() public view returns (uint pending, uint challenged, uint accepted, uint rejected) {\n        for (uint i = 0; i < itemsList.length; i++) {\n            Item storage item = items[itemsList[i]];\n            if (item.disputed) challenged++;\n            else if (item.status == ItemStatus.Resubmitted || item.status == ItemStatus.Submitted) pending++;\n            else if (item.status == ItemStatus.Registered) accepted++;\n            else if (item.status == ItemStatus.Cleared) rejected++;\n        }\n    }\n\n    /**\n     *  @dev Return the values of the items the query finds.\n     *  This function is O(n) at worst, where n is the number of items. This could exceed the gas limit, therefore this function should only be used for interface display and not by other contracts.\n     *  @param _cursor The pagination cursor.\n     *  @param _count The number of items to return.\n     *  @param _filter The filter to use.\n     *  @param _sort The sort order to use.\n     *  @return The values of the items found and wether there are more items for the current filter and sort.\n     */\n    function queryItems(bytes32 _cursor, uint _count, bool[6] _filter, bool _sort) public view returns (bytes32[] values, bool hasMore) {\n        uint _cursorIndex;\n        values = new bytes32[](_count);\n        uint _index = 0;\n\n        if (_cursor == 0)\n            _cursorIndex = 0;\n        else {\n            for (uint j = 0; j < itemsList.length; j++) {\n                if (itemsList[j] == _cursor) {\n                    _cursorIndex = j;\n                    break;\n                }\n            }\n            require(_cursorIndex != 0);\n        }\n\n        for (\n                uint i = _cursorIndex == 0 ? (_sort ? 0 : 1) : (_sort ? _cursorIndex + 1 : itemsList.length - _cursorIndex + 1);\n                _sort ? i < itemsList.length : i <= itemsList.length;\n                i++\n            ) { // Oldest or newest first\n            Item storage item = items[itemsList[_sort ? i : itemsList.length - i]];\n            if (\n                item.status != ItemStatus.Absent && item.status != ItemStatus.PreventiveClearingRequested && (\n                    (_filter[0] && (item.status == ItemStatus.Resubmitted || item.status == ItemStatus.Submitted)) || // Pending\n                    (_filter[1] && item.disputed) || // Challenged\n                    (_filter[2] && item.status == ItemStatus.Registered) || // Accepted\n                    (_filter[3] && item.status == ItemStatus.Cleared) || // Rejected\n                    (_filter[4] && item.submitter == msg.sender) || // My Submissions\n                    (_filter[5] && item.challenger == msg.sender) // My Challenges\n                )\n            ) {\n                if (_index < _count) {\n                    values[_index] = itemsList[_sort ? i : itemsList.length - i];\n                    _index++;\n                } else {\n                    hasMore = true;\n                    break;\n                }\n            }\n        }\n    }\n}\n",
  "sourcePath": "/Users/epiqueras/Work/kleros/kleros-interaction/contracts/standard/permission/ArbitrablePermissionList.sol",
  "compiler": {
    "name": "solc",
    "version": "0.4.24+commit.e67f0147.Emscripten.clang"
  },
  "schemaVersion": "2.0.1",
  "updatedAt": "2018-07-26T20:18:11.867Z"
}