{
  "contractName": "ArbitrablePermissionList",
  "abi": [
    {
      "constant": true,
      "inputs": [],
      "name": "timeToChallenge",
      "outputs": [
        {
          "name": "",
          "type": "uint256"
        }
      ],
      "payable": false,
      "stateMutability": "view",
      "type": "function"
    },
    {
      "constant": true,
      "inputs": [],
      "name": "arbitratorExtraData",
      "outputs": [
        {
          "name": "",
          "type": "bytes"
        }
      ],
      "payable": false,
      "stateMutability": "view",
      "type": "function"
    },
    {
      "constant": false,
      "inputs": [
        {
          "name": "_disputeID",
          "type": "uint256"
        },
        {
          "name": "_ruling",
          "type": "uint256"
        }
      ],
      "name": "rule",
      "outputs": [],
      "payable": false,
      "stateMutability": "nonpayable",
      "type": "function"
    },
    {
      "constant": true,
      "inputs": [],
      "name": "stake",
      "outputs": [
        {
          "name": "",
          "type": "uint256"
        }
      ],
      "payable": false,
      "stateMutability": "view",
      "type": "function"
    },
    {
      "constant": true,
      "inputs": [
        {
          "name": "",
          "type": "uint256"
        }
      ],
      "name": "disputeIDToItem",
      "outputs": [
        {
          "name": "",
          "type": "bytes32"
        }
      ],
      "payable": false,
      "stateMutability": "view",
      "type": "function"
    },
    {
      "constant": true,
      "inputs": [
        {
          "name": "",
          "type": "bytes32"
        }
      ],
      "name": "items",
      "outputs": [
        {
          "name": "status",
          "type": "uint8"
        },
        {
          "name": "lastAction",
          "type": "uint256"
        },
        {
          "name": "submitter",
          "type": "address"
        },
        {
          "name": "challenger",
          "type": "address"
        },
        {
          "name": "balance",
          "type": "uint256"
        },
        {
          "name": "disputed",
          "type": "bool"
        },
        {
          "name": "disputeID",
          "type": "uint256"
        }
      ],
      "payable": false,
      "stateMutability": "view",
      "type": "function"
    },
    {
      "constant": true,
      "inputs": [],
      "name": "appendOnly",
      "outputs": [
        {
          "name": "",
          "type": "bool"
        }
      ],
      "payable": false,
      "stateMutability": "view",
      "type": "function"
    },
    {
      "constant": true,
      "inputs": [],
      "name": "arbitrator",
      "outputs": [
        {
          "name": "",
          "type": "address"
        }
      ],
      "payable": false,
      "stateMutability": "view",
      "type": "function"
    },
    {
      "constant": true,
      "inputs": [],
      "name": "blacklist",
      "outputs": [
        {
          "name": "",
          "type": "bool"
        }
      ],
      "payable": false,
      "stateMutability": "view",
      "type": "function"
    },
    {
      "constant": true,
      "inputs": [
        {
          "name": "",
          "type": "uint256"
        }
      ],
      "name": "itemsList",
      "outputs": [
        {
          "name": "",
          "type": "bytes32"
        }
      ],
      "payable": false,
      "stateMutability": "view",
      "type": "function"
    },
    {
      "inputs": [
        {
          "name": "_arbitrator",
          "type": "address"
        },
        {
          "name": "_arbitratorExtraData",
          "type": "bytes"
        },
        {
          "name": "_metaEvidence",
          "type": "string"
        },
        {
          "name": "_blacklist",
          "type": "bool"
        },
        {
          "name": "_appendOnly",
          "type": "bool"
        },
        {
          "name": "_stake",
          "type": "uint256"
        },
        {
          "name": "_timeToChallenge",
          "type": "uint256"
        }
      ],
      "payable": false,
      "stateMutability": "nonpayable",
      "type": "constructor"
    },
    {
      "anonymous": false,
      "inputs": [
        {
          "indexed": true,
          "name": "submitter",
          "type": "address"
        },
        {
          "indexed": true,
          "name": "challenger",
          "type": "address"
        },
        {
          "indexed": true,
          "name": "value",
          "type": "bytes32"
        },
        {
          "indexed": false,
          "name": "status",
          "type": "uint8"
        },
        {
          "indexed": false,
          "name": "disputed",
          "type": "bool"
        }
      ],
      "name": "ItemStatusChange",
      "type": "event"
    },
    {
      "anonymous": false,
      "inputs": [
        {
          "indexed": true,
          "name": "_arbitrator",
          "type": "address"
        },
        {
          "indexed": true,
          "name": "_disputeID",
          "type": "uint256"
        },
        {
          "indexed": false,
          "name": "_rulingOptions",
          "type": "string"
        }
      ],
      "name": "Dispute",
      "type": "event"
    },
    {
      "anonymous": false,
      "inputs": [
        {
          "indexed": true,
          "name": "_arbitrator",
          "type": "address"
        },
        {
          "indexed": true,
          "name": "_disputeID",
          "type": "uint256"
        },
        {
          "indexed": false,
          "name": "_ruling",
          "type": "uint256"
        }
      ],
      "name": "Ruling",
      "type": "event"
    },
    {
      "anonymous": false,
      "inputs": [
        {
          "indexed": true,
          "name": "_metaEvidenceID",
          "type": "uint256"
        },
        {
          "indexed": false,
          "name": "_evidence",
          "type": "string"
        }
      ],
      "name": "MetaEvidence",
      "type": "event"
    },
    {
      "anonymous": false,
      "inputs": [
        {
          "indexed": true,
          "name": "_arbitrator",
          "type": "address"
        },
        {
          "indexed": true,
          "name": "_disputeID",
          "type": "uint256"
        },
        {
          "indexed": false,
          "name": "_metaEvidenceID",
          "type": "uint256"
        }
      ],
      "name": "LinkMetaEvidence",
      "type": "event"
    },
    {
      "anonymous": false,
      "inputs": [
        {
          "indexed": true,
          "name": "_arbitrator",
          "type": "address"
        },
        {
          "indexed": true,
          "name": "_disputeID",
          "type": "uint256"
        },
        {
          "indexed": false,
          "name": "_party",
          "type": "address"
        },
        {
          "indexed": false,
          "name": "_evidence",
          "type": "string"
        }
      ],
      "name": "Evidence",
      "type": "event"
    },
    {
      "constant": false,
      "inputs": [
        {
          "name": "_value",
          "type": "bytes32"
        }
      ],
      "name": "requestRegistration",
      "outputs": [],
      "payable": true,
      "stateMutability": "payable",
      "type": "function"
    },
    {
      "constant": false,
      "inputs": [
        {
          "name": "_value",
          "type": "bytes32"
        }
      ],
      "name": "requestClearing",
      "outputs": [],
      "payable": true,
      "stateMutability": "payable",
      "type": "function"
    },
    {
      "constant": false,
      "inputs": [
        {
          "name": "_value",
          "type": "bytes32"
        }
      ],
      "name": "challengeRegistration",
      "outputs": [],
      "payable": true,
      "stateMutability": "payable",
      "type": "function"
    },
    {
      "constant": false,
      "inputs": [
        {
          "name": "_value",
          "type": "bytes32"
        }
      ],
      "name": "challengeClearing",
      "outputs": [],
      "payable": true,
      "stateMutability": "payable",
      "type": "function"
    },
    {
      "constant": false,
      "inputs": [
        {
          "name": "_value",
          "type": "bytes32"
        }
      ],
      "name": "appeal",
      "outputs": [],
      "payable": true,
      "stateMutability": "payable",
      "type": "function"
    },
    {
      "constant": false,
      "inputs": [
        {
          "name": "_value",
          "type": "bytes32"
        }
      ],
      "name": "executeRequest",
      "outputs": [],
      "payable": false,
      "stateMutability": "nonpayable",
      "type": "function"
    },
    {
      "constant": true,
      "inputs": [
        {
          "name": "_value",
          "type": "bytes32"
        }
      ],
      "name": "isPermitted",
      "outputs": [
        {
          "name": "allowed",
          "type": "bool"
        }
      ],
      "payable": false,
      "stateMutability": "view",
      "type": "function"
    },
    {
      "constant": true,
      "inputs": [],
      "name": "itemsCount",
      "outputs": [
        {
          "name": "count",
          "type": "uint256"
        }
      ],
      "payable": false,
      "stateMutability": "view",
      "type": "function"
    },
    {
      "constant": true,
      "inputs": [
        {
          "name": "_cursor",
          "type": "bytes32"
        },
        {
          "name": "_count",
          "type": "uint256"
        },
        {
          "name": "_filter",
          "type": "bool[6]"
        },
        {
          "name": "_sort",
          "type": "bool"
        }
      ],
      "name": "queryItems",
      "outputs": [
        {
          "name": "values",
          "type": "bytes32[]"
        },
        {
          "name": "hasMore",
          "type": "bool"
        }
      ],
      "payable": false,
      "stateMutability": "view",
      "type": "function"
    }
  ],
  "bytecode": "0x60806040523480156200001157600080fd5b506040516200303d3803806200303d833981018060405281019080805190602001909291908051820192919060200180518201929190602001805190602001909291908051906020019092919080519060200190929190805190602001909291905050508686816000806101000a81548173ffffffffffffffffffffffffffffffffffffffff021916908373ffffffffffffffffffffffffffffffffffffffff1602179055508060019080519060200190620000cf929190620001c2565b50505060007f61606860eb6c87306811e2695215385101daab53bd6ab4e9f9049aead9363c7d866040518080602001828103825283818151815260200191508051906020019080838360005b83811015620001385780820151818401526020810190506200011b565b50505050905090810190601f168015620001665780820380516001836020036101000a031916815260200191505b509250505060405180910390a283600260006101000a81548160ff02191690831515021790555082600260016101000a81548160ff02191690831515021790555081600381905550806004819055505050505050505062000271565b828054600181600116156101000203166002900490600052602060002090601f016020900481019282601f106200020557805160ff191683800117855562000236565b8280016001018555821562000236579182015b828111156200023557825182559160200191906001019062000218565b5b50905062000245919062000249565b5090565b6200026e91905b808211156200026a57600081600090555060010162000250565b5090565b90565b612dbc80620002816000396000f300608060405260043610610107576000357c0100000000000000000000000000000000000000000000000000000000900463ffffffff1680630689d0ff1461010c5780630c7ac7b614610137578063311a6c56146101c7578063342d9a04146101fe5780633a4b66f114610222578063409c88281461024d57806348f343f314610296578063675629fe1461036f5780636cc6cde11461039e5780638e604b1d146103f557806393519d66146104cb578063a4b5fa56146104ef578063b783d6c71461051e578063bc16272d14610542578063beabdb7b14610566578063c2bd9d95146105af578063e2c03ace146105f8578063e9c2416614610623578063ece1de4414610654575b600080fd5b34801561011857600080fd5b50610121610678565b6040518082815260200191505060405180910390f35b34801561014357600080fd5b5061014c61067e565b6040518080602001828103825283818151815260200191508051906020019080838360005b8381101561018c578082015181840152602081019050610171565b50505050905090810190601f1680156101b95780820380516001836020036101000a031916815260200191505b509250505060405180910390f35b3480156101d357600080fd5b506101fc600480360381019080803590602001909291908035906020019092919050505061071c565b005b61022060048036038101908080356000191690602001909291905050506107d4565b005b34801561022e57600080fd5b50610237610e85565b6040518082815260200191505060405180910390f35b34801561025957600080fd5b5061027860048036038101908080359060200190929190505050610e8b565b60405180826000191660001916815260200191505060405180910390f35b3480156102a257600080fd5b506102c56004803603810190808035600019169060200190929190505050610ea3565b604051808860068111156102d557fe5b60ff1681526020018781526020018673ffffffffffffffffffffffffffffffffffffffff1673ffffffffffffffffffffffffffffffffffffffff1681526020018573ffffffffffffffffffffffffffffffffffffffff1673ffffffffffffffffffffffffffffffffffffffff1681526020018481526020018315151515815260200182815260200197505050505050505060405180910390f35b34801561037b57600080fd5b50610384610f3f565b604051808215151515815260200191505060405180910390f35b3480156103aa57600080fd5b506103b3610f52565b604051808273ffffffffffffffffffffffffffffffffffffffff1673ffffffffffffffffffffffffffffffffffffffff16815260200191505060405180910390f35b34801561040157600080fd5b506104696004803603810190808035600019169060200190929190803590602001909291908060c00190600680602002604051908101604052809291908260066020028082843782019150505050509192919290803515159060200190929190505050610f77565b604051808060200183151515158152602001828103825284818151815260200191508051906020019060200280838360005b838110156104b657808201518184015260208101905061049b565b50505050905001935050505060405180910390f35b6104ed6004803603810190808035600019169060200190929190505050611408565b005b3480156104fb57600080fd5b506105046117f4565b604051808215151515815260200191505060405180910390f35b6105406004803603810190808035600019169060200190929190505050611807565b005b6105646004803603810190808035600019169060200190929190505050611eb9565b005b34801561057257600080fd5b506105956004803603810190808035600019169060200190929190505050612289565b604051808215151515815260200191505060405180910390f35b3480156105bb57600080fd5b506105da6004803603810190808035906020019092919050505061234b565b60405180826000191660001916815260200191505060405180910390f35b34801561060457600080fd5b5061060d61236e565b6040518082815260200191505060405180910390f35b34801561062f57600080fd5b50610652600480360381019080803560001916906020019092919050505061237b565b005b610676600480360381019080803560001916906020019092919050505061263e565b005b60045481565b60018054600181600116156101000203166002900480601f0160208091040260200160405190810160405280929190818152602001828054600181600116156101000203166002900480156107145780601f106106e957610100808354040283529160200191610714565b820191906000526020600020905b8154815290600101906020018083116106f757829003601f168201915b505050505081565b6000809054906101000a900473ffffffffffffffffffffffffffffffffffffffff1673ffffffffffffffffffffffffffffffffffffffff163373ffffffffffffffffffffffffffffffffffffffff1614151561077757600080fd5b813373ffffffffffffffffffffffffffffffffffffffff167f394027a5fa6e098a1191094d1719d6929b9abc535fcc0c8f448d6a4e75622276836040518082815260200191505060405180910390a36107d08282612799565b5050565b60008060056000846000191660001916815260200190815260200160002091506000809054906101000a900473ffffffffffffffffffffffffffffffffffffffff1673ffffffffffffffffffffffffffffffffffffffff1663f7434ea960016040518263ffffffff167c010000000000000000000000000000000000000000000000000000000002815260040180806020018281038252838181546001816001161561010002031660029004815260200191508054600181600116156101000203166002900480156108e75780601f106108bc576101008083540402835291602001916108e7565b820191906000526020600020905b8154815290600101906020018083116108ca57829003601f168201915b505092505050602060405180830381600087803b15801561090757600080fd5b505af115801561091b573d6000803e3d6000fd5b505050506040513d602081101561093157600080fd5b810190808051906020019092919050505090508060035401341015151561095757600080fd5b6005600681111561096457fe5b8260000160009054906101000a900460ff16600681111561098157fe5b14806109b3575060068081111561099457fe5b8260000160009054906101000a900460ff1660068111156109b157fe5b145b15156109be57600080fd5b8160050160009054906101000a900460ff161515156109dc57600080fd5b808260040154101515610c5757338260030160006101000a81548173ffffffffffffffffffffffffffffffffffffffff021916908373ffffffffffffffffffffffffffffffffffffffff160217905550803403826004016000828254019250508190555060018260050160006101000a81548160ff0219169083151502179055506000809054906101000a900473ffffffffffffffffffffffffffffffffffffffff1673ffffffffffffffffffffffffffffffffffffffff1663c13517e182600260016040518463ffffffff167c01000000000000000000000000000000000000000000000000000000000281526004018083815260200180602001828103825283818154600181600116156101000203166002900481526020019150805460018160011615610100020316600290048015610b595780601f10610b2e57610100808354040283529160200191610b59565b820191906000526020600020905b815481529060010190602001808311610b3c57829003601f168201915b505093505050506020604051808303818588803b158015610b7957600080fd5b505af1158015610b8d573d6000803e3d6000fd5b50505050506040513d6020811015610ba457600080fd5b81019080805190602001909291905050508260060181905550826006600084600601548152602001908152602001600020816000191690555081600601546000809054906101000a900473ffffffffffffffffffffffffffffffffffffffff1673ffffffffffffffffffffffffffffffffffffffff167f21da1f02e8071a7680b73ad6e5bc1aee1f8f0620a0a08a0333be1f0ca9dd7fec60006040518082815260200191505060405180910390a3610d89565b60056006811115610c6457fe5b8260000160009054906101000a900460ff166006811115610c8157fe5b1415610cb25760038260000160006101000a81548160ff02191690836006811115610ca857fe5b0217905550610cd9565b60008260000160006101000a81548160ff02191690836006811115610cd357fe5b02179055505b8160020160009054906101000a900473ffffffffffffffffffffffffffffffffffffffff1673ffffffffffffffffffffffffffffffffffffffff166108fc83600401549081150290604051600060405180830381858888f1935050505050600082600401819055503373ffffffffffffffffffffffffffffffffffffffff166108fc349081150290604051600060405180830381858888f19350505050158015610d87573d6000803e3d6000fd5b505b42826001018190555082600019168260030160009054906101000a900473ffffffffffffffffffffffffffffffffffffffff1673ffffffffffffffffffffffffffffffffffffffff168360020160009054906101000a900473ffffffffffffffffffffffffffffffffffffffff1673ffffffffffffffffffffffffffffffffffffffff167fa4beab79462e336293c2f229498d5942d3b4642806ab2820d6b7846d42d7e21a8560000160009054906101000a900460ff168660050160009054906101000a900460ff1660405180836006811115610e6257fe5b60ff168152602001821515151581526020019250505060405180910390a4505050565b60035481565b60066020528060005260406000206000915090505481565b60056020528060005260406000206000915090508060000160009054906101000a900460ff16908060010154908060020160009054906101000a900473ffffffffffffffffffffffffffffffffffffffff16908060030160009054906101000a900473ffffffffffffffffffffffffffffffffffffffff16908060040154908060050160009054906101000a900460ff16908060060154905087565b600260019054906101000a900460ff1681565b6000809054906101000a900473ffffffffffffffffffffffffffffffffffffffff1681565b606060008060008060008089604051908082528060200260200182016040528015610fb15781602001602082028038833980820191505090505b5096506000935060006001028b600019161415610fd15760009450611032565b600092505b600780549050831015611021578a60001916600784815481101515610ff757fe5b906000526020600020015460001916141561101457829450611021565b8280600101935050610fd6565b6000851415151561103157600080fd5b5b60008514611059578761104f576001856007805490500301611054565b600185015b61106c565b87611065576001611068565b60005b60ff165b91505b876110825760078054905082111561108b565b60078054905082105b156113fa576005600060078a6110a85784600780549050036110aa565b845b8154811015156110b657fe5b9060005260206000200154600019166000191681526020019081526020016000209050600060068111156110e657fe5b8160000160009054906101000a900460ff16600681111561110357fe5b14158015611138575060068081111561111857fe5b8160000160009054906101000a900460ff16600681111561113557fe5b14155b8015611376575088600060068110151561114e57fe5b602002015180156111b857506002600681111561116757fe5b8160000160009054906101000a900460ff16600681111561118457fe5b14806111b757506004600681111561119857fe5b8160000160009054906101000a900460ff1660068111156111b557fe5b145b5b806111ed57508860016006811015156111cd57fe5b602002015180156111ec57508060050160009054906101000a900460ff165b5b8061123b575088600260068110151561120257fe5b6020020151801561123a57506003600681111561121b57fe5b8160000160009054906101000a900460ff16600681111561123857fe5b145b5b80611289575088600360068110151561125057fe5b6020020151801561128857506001600681111561126957fe5b8160000160009054906101000a900460ff16600681111561128657fe5b145b5b806112ff575088600460068110151561129e57fe5b602002015180156112fe57503373ffffffffffffffffffffffffffffffffffffffff168160020160009054906101000a900473ffffffffffffffffffffffffffffffffffffffff1673ffffffffffffffffffffffffffffffffffffffff16145b5b80611375575088600560068110151561131457fe5b6020020151801561137457503373ffffffffffffffffffffffffffffffffffffffff168160030160009054906101000a900473ffffffffffffffffffffffffffffffffffffffff1673ffffffffffffffffffffffffffffffffffffffff16145b5b5b156113ed57898410156113e357600788611397578260078054905003611399565b825b8154811015156113a557fe5b906000526020600020015487858151811015156113be57fe5b90602001906020020190600019169081600019168152505083806001019450506113ec565b600195506113fa565b5b818060010192505061106f565b505050505094509492505050565b60008060056000846000191660001916815260200190815260200160002091506000809054906101000a900473ffffffffffffffffffffffffffffffffffffffff1673ffffffffffffffffffffffffffffffffffffffff1663f7434ea960016040518263ffffffff167c0100000000000000000000000000000000000000000000000000000000028152600401808060200182810382528381815460018160011615610100020316600290048152602001915080546001816001161561010002031660029004801561151b5780601f106114f05761010080835404028352916020019161151b565b820191906000526020600020905b8154815290600101906020018083116114fe57829003601f168201915b505092505050602060405180830381600087803b15801561153b57600080fd5b505af115801561154f573d6000803e3d6000fd5b505050506040513d602081101561156557600080fd5b81019080805190602001909291905050509050600260019054906101000a900460ff1615151561159457600080fd5b806003540134101515156115a757600080fd5b600360068111156115b457fe5b8260000160009054906101000a900460ff1660068111156115d157fe5b14156116025760058260000160006101000a81548160ff021916908360068111156115f857fe5b0217905550611663565b6000600681111561160f57fe5b8260000160009054906101000a900460ff16600681111561162c57fe5b141561165d5760068260000160006101000a81548160ff0219169083600681111561165357fe5b0217905550611662565b600080fd5b5b6000826001015414156116a35760078390806001815401808255809150509060018203906000526020600020016000909192909190915090600019169055505b338260020160006101000a81548173ffffffffffffffffffffffffffffffffffffffff021916908373ffffffffffffffffffffffffffffffffffffffff16021790555034826004016000828254019250508190555042826001018190555082600019168260030160009054906101000a900473ffffffffffffffffffffffffffffffffffffffff1673ffffffffffffffffffffffffffffffffffffffff168360020160009054906101000a900473ffffffffffffffffffffffffffffffffffffffff1673ffffffffffffffffffffffffffffffffffffffff167fa4beab79462e336293c2f229498d5942d3b4642806ab2820d6b7846d42d7e21a8560000160009054906101000a900460ff168660050160009054906101000a900460ff16604051808360068111156117d157fe5b60ff168152602001821515151581526020019250505060405180910390a4505050565b600260009054906101000a900460ff1681565b60008060056000846000191660001916815260200190815260200160002091506000809054906101000a900473ffffffffffffffffffffffffffffffffffffffff1673ffffffffffffffffffffffffffffffffffffffff1663f7434ea960016040518263ffffffff167c0100000000000000000000000000000000000000000000000000000000028152600401808060200182810382528381815460018160011615610100020316600290048152602001915080546001816001161561010002031660029004801561191a5780601f106118ef5761010080835404028352916020019161191a565b820191906000526020600020905b8154815290600101906020018083116118fd57829003601f168201915b505092505050602060405180830381600087803b15801561193a57600080fd5b505af115801561194e573d6000803e3d6000fd5b505050506040513d602081101561196457600080fd5b810190808051906020019092919050505090508060035401341015151561198a57600080fd5b6002600681111561199757fe5b8260000160009054906101000a900460ff1660068111156119b457fe5b14806119e75750600460068111156119c857fe5b8260000160009054906101000a900460ff1660068111156119e557fe5b145b15156119f257600080fd5b8160050160009054906101000a900460ff16151515611a1057600080fd5b808260040154101515611c8b57338260030160006101000a81548173ffffffffffffffffffffffffffffffffffffffff021916908373ffffffffffffffffffffffffffffffffffffffff160217905550803403826004016000828254019250508190555060018260050160006101000a81548160ff0219169083151502179055506000809054906101000a900473ffffffffffffffffffffffffffffffffffffffff1673ffffffffffffffffffffffffffffffffffffffff1663c13517e182600260016040518463ffffffff167c01000000000000000000000000000000000000000000000000000000000281526004018083815260200180602001828103825283818154600181600116156101000203166002900481526020019150805460018160011615610100020316600290048015611b8d5780601f10611b6257610100808354040283529160200191611b8d565b820191906000526020600020905b815481529060010190602001808311611b7057829003601f168201915b505093505050506020604051808303818588803b158015611bad57600080fd5b505af1158015611bc1573d6000803e3d6000fd5b50505050506040513d6020811015611bd857600080fd5b81019080805190602001909291905050508260060181905550826006600084600601548152602001908152602001600020816000191690555081600601546000809054906101000a900473ffffffffffffffffffffffffffffffffffffffff1673ffffffffffffffffffffffffffffffffffffffff167f21da1f02e8071a7680b73ad6e5bc1aee1f8f0620a0a08a0333be1f0ca9dd7fec60006040518082815260200191505060405180910390a3611dbd565b60026006811115611c9857fe5b8260000160009054906101000a900460ff166006811115611cb557fe5b1415611ce65760018260000160006101000a81548160ff02191690836006811115611cdc57fe5b0217905550611d0d565b60008260000160006101000a81548160ff02191690836006811115611d0757fe5b02179055505b8160020160009054906101000a900473ffffffffffffffffffffffffffffffffffffffff1673ffffffffffffffffffffffffffffffffffffffff166108fc83600401549081150290604051600060405180830381858888f1935050505050600082600401819055503373ffffffffffffffffffffffffffffffffffffffff166108fc349081150290604051600060405180830381858888f19350505050158015611dbb573d6000803e3d6000fd5b505b42826001018190555082600019168260030160009054906101000a900473ffffffffffffffffffffffffffffffffffffffff1673ffffffffffffffffffffffffffffffffffffffff168360020160009054906101000a900473ffffffffffffffffffffffffffffffffffffffff1673ffffffffffffffffffffffffffffffffffffffff167fa4beab79462e336293c2f229498d5942d3b4642806ab2820d6b7846d42d7e21a8560000160009054906101000a900460ff168660050160009054906101000a900460ff1660405180836006811115611e9657fe5b60ff168152602001821515151581526020019250505060405180910390a4505050565b60008060056000846000191660001916815260200190815260200160002091506000809054906101000a900473ffffffffffffffffffffffffffffffffffffffff1673ffffffffffffffffffffffffffffffffffffffff1663f7434ea960016040518263ffffffff167c01000000000000000000000000000000000000000000000000000000000281526004018080602001828103825283818154600181600116156101000203166002900481526020019150805460018160011615610100020316600290048015611fcc5780601f10611fa157610100808354040283529160200191611fcc565b820191906000526020600020905b815481529060010190602001808311611faf57829003601f168201915b505092505050602060405180830381600087803b158015611fec57600080fd5b505af1158015612000573d6000803e3d6000fd5b505050506040513d602081101561201657600080fd5b810190808051906020019092919050505090508060035401341015151561203c57600080fd5b6000600681111561204957fe5b8260000160009054906101000a900460ff16600681111561206657fe5b14156120975760048260000160006101000a81548160ff0219169083600681111561208d57fe5b02179055506120f8565b600160068111156120a457fe5b8260000160009054906101000a900460ff1660068111156120c157fe5b14156120f25760028260000160006101000a81548160ff021916908360068111156120e857fe5b02179055506120f7565b600080fd5b5b6000826001015414156121385760078390806001815401808255809150509060018203906000526020600020016000909192909190915090600019169055505b338260020160006101000a81548173ffffffffffffffffffffffffffffffffffffffff021916908373ffffffffffffffffffffffffffffffffffffffff16021790555034826004016000828254019250508190555042826001018190555082600019168260030160009054906101000a900473ffffffffffffffffffffffffffffffffffffffff1673ffffffffffffffffffffffffffffffffffffffff168360020160009054906101000a900473ffffffffffffffffffffffffffffffffffffffff1673ffffffffffffffffffffffffffffffffffffffff167fa4beab79462e336293c2f229498d5942d3b4642806ab2820d6b7846d42d7e21a8560000160009054906101000a900460ff168660050160009054906101000a900460ff166040518083600681111561226657fe5b60ff168152602001821515151581526020019250505060405180910390a4505050565b60008060006005600085600019166000191681526020019081526020016000209150600260068111156122b857fe5b8260000160009054906101000a900460ff1660068111156122d557fe5b11158061232357506006808111156122e957fe5b8260000160009054906101000a900460ff16600681111561230657fe5b14801561232257508160050160009054906101000a900460ff16155b5b9050600260009054906101000a900460ff16612340578015612342565b805b92505050919050565b60078181548110151561235a57fe5b906000526020600020016000915090505481565b6000600780549050905090565b6000600560008360001916600019168152602001908152602001600020905060045481600101544203101515156123b157600080fd5b8060050160009054906101000a900460ff161515156123cf57600080fd5b600260068111156123dc57fe5b8160000160009054906101000a900460ff1660068111156123f957fe5b148061242c57506004600681111561240d57fe5b8160000160009054906101000a900460ff16600681111561242a57fe5b145b1561245c5760038160000160006101000a81548160ff0219169083600681111561245257fe5b02179055506124ee565b6005600681111561246957fe5b8160000160009054906101000a900460ff16600681111561248657fe5b14806124b8575060068081111561249957fe5b8160000160009054906101000a900460ff1660068111156124b657fe5b145b156124e85760018160000160006101000a81548160ff021916908360068111156124de57fe5b02179055506124ed565b600080fd5b5b8060020160009054906101000a900473ffffffffffffffffffffffffffffffffffffffff1673ffffffffffffffffffffffffffffffffffffffff166108fc82600401549081150290604051600060405180830381858888f193505050505081600019168160030160009054906101000a900473ffffffffffffffffffffffffffffffffffffffff1673ffffffffffffffffffffffffffffffffffffffff168260020160009054906101000a900473ffffffffffffffffffffffffffffffffffffffff1673ffffffffffffffffffffffffffffffffffffffff167fa4beab79462e336293c2f229498d5942d3b4642806ab2820d6b7846d42d7e21a8460000160009054906101000a900460ff168560050160009054906101000a900460ff166040518083600681111561261c57fe5b60ff168152602001821515151581526020019250505060405180910390a45050565b600060056000836000191660001916815260200190815260200160002090506000809054906101000a900473ffffffffffffffffffffffffffffffffffffffff1673ffffffffffffffffffffffffffffffffffffffff166349912f8834836006015460016040518463ffffffff167c0100000000000000000000000000000000000000000000000000000000028152600401808381526020018060200182810382528381815460018160011615610100020316600290048152602001915080546001816001161561010002031660029004801561275c5780601f106127315761010080835404028352916020019161275c565b820191906000526020600020905b81548152906001019060200180831161273f57829003601f168201915b505093505050506000604051808303818588803b15801561277c57600080fd5b505af1158015612790573d6000803e3d6000fd5b50505050505050565b60006005600060066000868152602001908152602001600020546000191660001916815260200190815260200160002090508060050160009054906101000a900460ff1615156127e857600080fd5b600160ff16821415612943576002600681111561280157fe5b8160000160009054906101000a900460ff16600681111561281e57fe5b148061285157506004600681111561283257fe5b8160000160009054906101000a900460ff16600681111561284f57fe5b145b156128b9578060020160009054906101000a900473ffffffffffffffffffffffffffffffffffffffff1673ffffffffffffffffffffffffffffffffffffffff166108fc82600401549081150290604051600060405180830381858888f1935050505050612918565b8060030160009054906101000a900473ffffffffffffffffffffffffffffffffffffffff1673ffffffffffffffffffffffffffffffffffffffff166108fc82600401549081150290604051600060405180830381858888f19350505050505b60038160000160006101000a81548160ff0219169083600681111561293957fe5b0217905550612c63565b600260ff16821415612a9d5760068081111561295b57fe5b8160000160009054906101000a900460ff16600681111561297857fe5b14806129ab57506005600681111561298c57fe5b8160000160009054906101000a900460ff1660068111156129a957fe5b145b15612a13578060020160009054906101000a900473ffffffffffffffffffffffffffffffffffffffff1673ffffffffffffffffffffffffffffffffffffffff166108fc82600401549081150290604051600060405180830381858888f1935050505050612a72565b8060030160009054906101000a900473ffffffffffffffffffffffffffffffffffffffff1673ffffffffffffffffffffffffffffffffffffffff166108fc82600401549081150290604051600060405180830381858888f19350505050505b60018160000160006101000a81548160ff02191690836006811115612a9357fe5b0217905550612c62565b60026006811115612aaa57fe5b8160000160009054906101000a900460ff166006811115612ac757fe5b1415612afe5760016006811115612ada57fe5b8160000160009054906101000a900460ff166006811115612af757fe5b5050612b8d565b60056006811115612b0b57fe5b8160000160009054906101000a900460ff166006811115612b2857fe5b1415612b5f5760046006811115612b3b57fe5b8160000160009054906101000a900460ff166006811115612b5857fe5b5050612b8c565b60006006811115612b6c57fe5b8160000160009054906101000a900460ff166006811115612b8957fe5b50505b5b8060020160009054906101000a900473ffffffffffffffffffffffffffffffffffffffff1673ffffffffffffffffffffffffffffffffffffffff166108fc60028360040154811515612bdb57fe5b049081150290604051600060405180830381858888f19350505050508060030160009054906101000a900473ffffffffffffffffffffffffffffffffffffffff1673ffffffffffffffffffffffffffffffffffffffff166108fc60028360040154811515612c4557fe5b049081150290604051600060405180830381858888f19350505050505b5b60008160050160006101000a81548160ff021916908315150217905550600081600401819055506006600084815260200190815260200160002054600019168160030160009054906101000a900473ffffffffffffffffffffffffffffffffffffffff1673ffffffffffffffffffffffffffffffffffffffff168260020160009054906101000a900473ffffffffffffffffffffffffffffffffffffffff1673ffffffffffffffffffffffffffffffffffffffff167fa4beab79462e336293c2f229498d5942d3b4642806ab2820d6b7846d42d7e21a8460000160009054906101000a900460ff168560050160009054906101000a900460ff1660405180836006811115612d6d57fe5b60ff168152602001821515151581526020019250505060405180910390a45050505600a165627a7a72305820a2a6fe8fc6155b14437e46ad479ae6c6f05db8c39cd81911f7df4b0c35daf31e0029",
  "source": " /**\n *  @title Arbitrable Permission List\n *  @author Clment Lesaege - <clement@lesaege.com>\n *  This code hasn't undertaken bug bounty programs yet.\n */\n\npragma solidity ^0.4.23;\n\nimport \"../arbitration/Arbitrable.sol\";\nimport \"./PermissionInterface.sol\";\n\n/**\n *  @title Arbitrable Permission List\n *  @dev This is an arbitrator curated registry. Anyone can post an item with a deposit. If no one complains within a defined time period, the item is added to the registry.\n *  Anyone can complain and also post a deposit. If someone does, a dispute is created. The winner of the dispute gets the deposit of the other party and the item is added or removed accordingly.\n *  To make a request, parties have to deposit a stake and the arbitration fees. If the arbitration fees change between the submitter's payment and the challenger's payment, a part of the submitter stake can be used as an arbitration fee deposit.\n *  In case the arbitrator refuses to rule, the item is put in the initial absent status and the balance is split equally between parties.\n */\ncontract ArbitrablePermissionList is PermissionInterface, Arbitrable {\n    /* Enums */\n\n    enum ItemStatus {\n        Absent, // The item has never been submitted.\n        Cleared, // The item has been submitted and the dispute resolution process determined it should not be added or a clearing request has been submitted and not contested.\n        Resubmitted, // The item has been cleared but someone has resubmitted it.\n        Registered, // The item has been submitted and the dispute resolution process determined it should be added or the submission was never contested.\n        Submitted, // The item has been submitted.\n        ClearingRequested, // The item is registered, but someone has requested to remove it.\n        PreventiveClearingRequested // The item has never been registered, but someone asked to clear it preemptively to avoid it being shown as not registered during the dispute resolution process.\n    }\n\n    /* Structs */\n\n    struct Item {\n        ItemStatus status; // Status of the item.\n        uint lastAction; // Time of the last action.\n        address submitter; // Address of the submitter of the item status change request, if any.\n        address challenger; // Address of the challenger, if any.\n        uint balance; // The total amount of funds to be given to the winner of a potential dispute. Includes stake and reimbursement of arbitration fees.\n        bool disputed; // True if a dispute is taking place.\n        uint disputeID; // ID of the dispute, if any.\n    }\n\n    /* Events */\n\n    /**\n     *  @dev Called when the item's status changes or when it is contested/resolved.\n     *  @param submitter Address of the submitter, if any.\n     *  @param challenger Address of the challenger, if any.\n     *  @param value The value of the item.\n     *  @param status The status of the item.\n     *  @param disputed The item is being disputed.\n     */\n    event ItemStatusChange(\n        address indexed submitter,\n        address indexed challenger,\n        bytes32 indexed value,\n        ItemStatus status,\n        bool disputed\n    );\n\n    /* Storage */\n\n    // Settings\n    bool public blacklist; // True if the list should function as a blacklist, false if it should function as a whitelist.\n    bool public appendOnly; // True if the list should be append only.\n    uint public stake; // The stake to put to submit/clear/challenge and item in addition of arbitration fees.\n    uint public timeToChallenge; // The time before which an action is executable if not challenged.\n\n    // Ruling Options\n    uint8 constant REGISTER = 1;\n    uint8 constant CLEAR = 2;\n\n    // Items\n    mapping(bytes32 => Item) public items;\n    mapping(uint => bytes32) public disputeIDToItem;\n    bytes32[] public itemsList;\n\n    /* Constructor */\n\n    /**\n     *  @dev Constructs the arbitrable permission list and sets the type.\n     *  @param _arbitrator The chosen arbitrator.\n     *  @param _arbitratorExtraData Extra data for the arbitrator contract.\n     *  @param _metaEvidence The URL of the meta evidence object.\n     *  @param _blacklist True if the list should function as a blacklist, false if it should function as a whitelist.\n     *  @param _appendOnly True if the list should be append only.\n     *  @param _stake The amount in Weis of deposit required for a submission or a challenge in addition of the arbitration fees.\n     *  @param _timeToChallenge The time in seconds, other parties have to challenge.\n     */\n    constructor(\n        Arbitrator _arbitrator,\n        bytes _arbitratorExtraData,\n        string _metaEvidence,\n        bool _blacklist,\n        bool _appendOnly,\n        uint _stake,\n        uint _timeToChallenge) Arbitrable(_arbitrator, _arbitratorExtraData) public {\n        emit MetaEvidence(0, _metaEvidence);\n        blacklist = _blacklist;\n        appendOnly = _appendOnly;\n        stake = _stake;\n        timeToChallenge = _timeToChallenge;\n    }\n\n    /* Public */\n\n    /**\n     *  @dev Request for an item to be registered.\n     *  @param _value The value of the item to register.\n     */\n    function requestRegistration(bytes32 _value) public payable {\n        Item storage item = items[_value];\n        uint arbitratorCost = arbitrator.arbitrationCost(arbitratorExtraData);\n        require(msg.value >= stake + arbitratorCost);\n\n        if (item.status == ItemStatus.Absent)\n            item.status = ItemStatus.Submitted;\n        else if (item.status == ItemStatus.Cleared)\n            item.status = ItemStatus.Resubmitted;\n        else\n            revert(); // If the item is neither Absent nor Cleared, it is not possible to request registering it.\n\n        if (item.lastAction == 0) {\n            itemsList.push(_value);\n        }\n\n        item.submitter = msg.sender;\n        item.balance += msg.value;\n        item.lastAction = now;\n\n        emit ItemStatusChange(item.submitter, item.challenger, _value, item.status, item.disputed);\n    }\n\n    /**\n     *  @dev Request an item to be cleared.\n     *  @param _value The value of the item to clear.\n     */\n    function requestClearing(bytes32 _value) public payable {\n        Item storage item = items[_value];\n        uint arbitratorCost = arbitrator.arbitrationCost(arbitratorExtraData);\n        require(!appendOnly);\n        require(msg.value >= stake + arbitratorCost);\n\n        if (item.status == ItemStatus.Registered)\n            item.status = ItemStatus.ClearingRequested;\n        else if (item.status == ItemStatus.Absent)\n            item.status = ItemStatus.PreventiveClearingRequested;\n        else\n            revert(); // If the item is neither Registered nor Absent, it is not possible to request clearing it.\n        \n        if (item.lastAction == 0) {\n            itemsList.push(_value);\n        }\n\n        item.submitter = msg.sender;\n        item.balance += msg.value;\n        item.lastAction = now;\n\n        emit ItemStatusChange(item.submitter, item.challenger, _value, item.status, item.disputed);\n    }\n\n    /**\n     *  @dev Challenge a registration request.\n     *  @param _value The value of the item subject to the registering request.\n     */\n    function challengeRegistration(bytes32 _value) public payable {\n        Item storage item = items[_value];\n        uint arbitratorCost = arbitrator.arbitrationCost(arbitratorExtraData);\n        require(msg.value >= stake + arbitratorCost);\n        require(item.status == ItemStatus.Resubmitted || item.status == ItemStatus.Submitted);\n        require(!item.disputed);\n\n        if (item.balance >= arbitratorCost) { // In the general case, create a dispute.\n            item.challenger = msg.sender;\n            item.balance += msg.value-arbitratorCost;\n            item.disputed = true;\n            item.disputeID = arbitrator.createDispute.value(arbitratorCost)(2,arbitratorExtraData);\n            disputeIDToItem[item.disputeID] = _value;\n            emit LinkMetaEvidence(arbitrator, item.disputeID, 0);\n        } else { // In the case the arbitration fees increased so much that the deposit of the requester is not high enough. Cancel the request.\n            if (item.status == ItemStatus.Resubmitted)\n                item.status = ItemStatus.Cleared;\n            else\n                item.status = ItemStatus.Absent;\n\n            item.submitter.send(item.balance); // Deliberate use of send in order to not block the contract in case of reverting fallback.\n            item.balance = 0;\n            msg.sender.transfer(msg.value);\n        }\n\n        item.lastAction = now;\n\n        emit ItemStatusChange(item.submitter, item.challenger, _value, item.status, item.disputed);\n    }\n\n    /**\n     *  @dev Challenge a clearing request.\n     *  @param _value The value of the item subject to the clearing request.\n     */\n    function challengeClearing(bytes32 _value) public payable {\n        Item storage item = items[_value];\n        uint arbitratorCost = arbitrator.arbitrationCost(arbitratorExtraData);\n        require(msg.value >= stake + arbitratorCost);\n        require(item.status == ItemStatus.ClearingRequested || item.status == ItemStatus.PreventiveClearingRequested);\n        require(!item.disputed);\n\n        if (item.balance >= arbitratorCost) { // In the general case, create a dispute.\n            item.challenger = msg.sender;\n            item.balance += msg.value-arbitratorCost;\n            item.disputed = true;\n            item.disputeID = arbitrator.createDispute.value(arbitratorCost)(2,arbitratorExtraData);\n            disputeIDToItem[item.disputeID] = _value;\n            emit LinkMetaEvidence(arbitrator, item.disputeID, 0);\n        } else { // In the case the arbitration fees increased so much that the deposit of the requester is not high enough. Cancel the request.\n            if (item.status == ItemStatus.ClearingRequested)\n                item.status = ItemStatus.Registered;\n            else\n                item.status = ItemStatus.Absent;\n\n            item.submitter.send(item.balance); // Deliberate use of send in order to not block the contract in case of reverting fallback.\n            item.balance = 0;\n            msg.sender.transfer(msg.value);\n        }\n\n        item.lastAction = now;\n\n        emit ItemStatusChange(item.submitter, item.challenger, _value, item.status, item.disputed);\n    }\n\n    /**\n     *  @dev Appeal ruling. Anyone can appeal to prevent a malicious actor from challenging its own submission and loosing on purpose.\n     *  @param _value The value of the item with the dispute to appeal on.\n     */\n    function appeal(bytes32 _value) public payable {\n        Item storage item = items[_value];\n        arbitrator.appeal.value(msg.value)(item.disputeID,arbitratorExtraData); // Appeal, no need to check anything as the arbitrator does it.\n    }\n\n    /**\n     *  @dev Execute a request after the time for challenging it has passed. Can be called by anyone.\n     *  @param _value The value of the item with the request to execute.\n     */\n    function executeRequest(bytes32 _value) public {\n        Item storage item = items[_value];\n        require(now - item.lastAction >= timeToChallenge);\n        require(!item.disputed);\n\n        if (item.status == ItemStatus.Resubmitted || item.status == ItemStatus.Submitted)\n            item.status = ItemStatus.Registered;\n        else if (item.status == ItemStatus.ClearingRequested || item.status == ItemStatus.PreventiveClearingRequested)\n            item.status = ItemStatus.Cleared;\n        else\n            revert();\n\n        item.submitter.send(item.balance); // Deliberate use of send in order to not block the contract in case of reverting fallback.\n\n        emit ItemStatusChange(item.submitter, item.challenger, _value, item.status, item.disputed);\n    }\n\n    /* Public Views */\n\n    /**\n     *  @dev Return true if the item is allowed. \n     *  We consider the item to be in the list if its status is contested and it has not won a dispute previously.\n     *  @param _value The value of the item to check.\n     *  @return allowed True if the item is allowed, false otherwise.\n     */\n    function isPermitted(bytes32 _value) public view returns (bool allowed) {\n        Item storage item = items[_value];\n        bool _excluded = item.status <= ItemStatus.Resubmitted ||\n            (item.status == ItemStatus.PreventiveClearingRequested && !item.disputed);\n        return blacklist ? _excluded : !_excluded; // Items excluded from blacklist should return true.\n    }\n\n    /* Internal */\n\n    /**\n     *  @dev Execute the ruling of a dispute.\n     *  @param _disputeID ID of the dispute in the Arbitrator contract.\n     *  @param _ruling Ruling given by the arbitrator. Note that 0 is reserved for \"Not able/wanting to make a decision\".\n     */\n    function executeRuling(uint _disputeID, uint _ruling) internal {\n        Item storage item = items[disputeIDToItem[_disputeID]];\n        require(item.disputed);\n\n        if (_ruling == REGISTER) {\n            if (item.status == ItemStatus.Resubmitted || item.status == ItemStatus.Submitted)\n                item.submitter.send(item.balance); // Deliberate use of send in order to not block the contract in case of reverting fallback.\n            else\n                item.challenger.send(item.balance);\n\n            item.status = ItemStatus.Registered;\n        } else if (_ruling == CLEAR) {\n            if (item.status == ItemStatus.PreventiveClearingRequested || item.status == ItemStatus.ClearingRequested)\n                item.submitter.send(item.balance);\n            else\n                item.challenger.send(item.balance);\n\n            item.status = ItemStatus.Cleared;\n        } else { // Split the balance 50-50 and give the item the initial status.\n            if (item.status==ItemStatus.Resubmitted)\n                item.status==ItemStatus.Cleared;\n            else if (item.status==ItemStatus.ClearingRequested)\n                item.status==ItemStatus.Submitted;\n            else\n                item.status==ItemStatus.Absent;\n            item.submitter.send(item.balance / 2);\n            item.challenger.send(item.balance / 2);\n        }\n\n        item.disputed = false;\n        item.balance = 0;\n\n        emit ItemStatusChange(item.submitter, item.challenger, disputeIDToItem[_disputeID], item.status, item.disputed);\n    }\n\n    /* Interface Views */\n\n    /**\n     *  @dev Return the number of items in the list.\n     *  @return The number of items in the list.\n     */\n    function itemsCount() public view returns (uint count) {\n        count = itemsList.length;\n    }\n\n    /**\n     *  @dev Return the values of the items the query finds.\n     *  This function is O(n) at worst, where n is the number of items. This could exceed the gas limit, therefore this function should only be used for interface display and not by other contracts.\n     *  @param _cursor The pagination cursor.\n     *  @param _count The number of items to return.\n     *  @param _filter The filter to use.\n     *  @param _sort The sort order to use.\n     *  @return The values of the items found and wether there are more items for the current filter and sort.\n     */\n    function queryItems(bytes32 _cursor, uint _count, bool[6] _filter, bool _sort) public view returns (bytes32[] values, bool hasMore) {\n        uint _cursorIndex;\n        values = new bytes32[](_count);\n        uint _index = 0;\n\n        if (_cursor == 0)\n            _cursorIndex = 0;\n        else {\n            for (uint j = 0; j < itemsList.length; j++) {\n                if (itemsList[j] == _cursor) {\n                    _cursorIndex = j;\n                    break;\n                }\n            }\n            require(_cursorIndex != 0);\n        }\n\n        for (\n                uint i = _cursorIndex == 0 ? (_sort ? 0 : 1) : (_sort ? _cursorIndex + 1 : itemsList.length - _cursorIndex + 1);\n                _sort ? i < itemsList.length : i <= itemsList.length;\n                i++\n            ) { // Oldest or newest first\n            Item storage item = items[itemsList[_sort ? i : itemsList.length - i]];\n            if (\n                item.status != ItemStatus.Absent && item.status != ItemStatus.PreventiveClearingRequested && (\n                    (_filter[0] && (item.status == ItemStatus.Resubmitted || item.status == ItemStatus.Submitted)) || // Pending\n                    (_filter[1] && item.disputed) || // Challenged\n                    (_filter[2] && item.status == ItemStatus.Registered) || // Accepted\n                    (_filter[3] && item.status == ItemStatus.Cleared) || // Rejected\n                    (_filter[4] && item.submitter == msg.sender) || // My Submissions\n                    (_filter[5] && item.challenger == msg.sender) // My Challenges\n                )\n            ) {\n                if (_index < _count) {\n                    values[_index] = itemsList[_sort ? i : itemsList.length - i];\n                    _index++;\n                } else {\n                    hasMore = true;\n                    break;\n                }\n            }\n        }\n    }\n}\n",
  "sourcePath": "/Users/epiqueras/Work/kleros/kleros-interaction/contracts/standard/permission/ArbitrablePermissionList.sol",
  "compiler": {
    "name": "solc",
    "version": "0.4.24+commit.e67f0147.Emscripten.clang"
  },
  "schemaVersion": "2.0.1",
  "updatedAt": "2018-07-24T22:32:14.763Z"
}