{
  "contractName": "ArbitrablePermissionList",
  "abi": [
    {
      "constant": true,
      "inputs": [],
      "name": "timeToChallenge",
      "outputs": [
        {
          "name": "",
          "type": "uint256"
        }
      ],
      "payable": false,
      "stateMutability": "view",
      "type": "function"
    },
    {
      "constant": true,
      "inputs": [],
      "name": "arbitratorExtraData",
      "outputs": [
        {
          "name": "",
          "type": "bytes"
        }
      ],
      "payable": false,
      "stateMutability": "view",
      "type": "function"
    },
    {
      "constant": true,
      "inputs": [],
      "name": "rechallengePossible",
      "outputs": [
        {
          "name": "",
          "type": "bool"
        }
      ],
      "payable": false,
      "stateMutability": "view",
      "type": "function"
    },
    {
      "constant": false,
      "inputs": [
        {
          "name": "_disputeID",
          "type": "uint256"
        },
        {
          "name": "_ruling",
          "type": "uint256"
        }
      ],
      "name": "rule",
      "outputs": [],
      "payable": false,
      "stateMutability": "nonpayable",
      "type": "function"
    },
    {
      "constant": true,
      "inputs": [],
      "name": "stake",
      "outputs": [
        {
          "name": "",
          "type": "uint256"
        }
      ],
      "payable": false,
      "stateMutability": "view",
      "type": "function"
    },
    {
      "constant": true,
      "inputs": [
        {
          "name": "",
          "type": "uint256"
        }
      ],
      "name": "disputeIDToItem",
      "outputs": [
        {
          "name": "",
          "type": "bytes32"
        }
      ],
      "payable": false,
      "stateMutability": "view",
      "type": "function"
    },
    {
      "constant": true,
      "inputs": [
        {
          "name": "",
          "type": "bytes32"
        }
      ],
      "name": "items",
      "outputs": [
        {
          "name": "status",
          "type": "uint8"
        },
        {
          "name": "lastAction",
          "type": "uint256"
        },
        {
          "name": "submitter",
          "type": "address"
        },
        {
          "name": "challenger",
          "type": "address"
        },
        {
          "name": "balance",
          "type": "uint256"
        },
        {
          "name": "disputed",
          "type": "bool"
        },
        {
          "name": "disputeID",
          "type": "uint256"
        }
      ],
      "payable": false,
      "stateMutability": "view",
      "type": "function"
    },
    {
      "constant": true,
      "inputs": [],
      "name": "appendOnly",
      "outputs": [
        {
          "name": "",
          "type": "bool"
        }
      ],
      "payable": false,
      "stateMutability": "view",
      "type": "function"
    },
    {
      "constant": true,
      "inputs": [],
      "name": "arbitrator",
      "outputs": [
        {
          "name": "",
          "type": "address"
        }
      ],
      "payable": false,
      "stateMutability": "view",
      "type": "function"
    },
    {
      "constant": true,
      "inputs": [],
      "name": "blacklist",
      "outputs": [
        {
          "name": "",
          "type": "bool"
        }
      ],
      "payable": false,
      "stateMutability": "view",
      "type": "function"
    },
    {
      "constant": true,
      "inputs": [
        {
          "name": "",
          "type": "uint256"
        }
      ],
      "name": "itemsList",
      "outputs": [
        {
          "name": "",
          "type": "bytes32"
        }
      ],
      "payable": false,
      "stateMutability": "view",
      "type": "function"
    },
    {
      "inputs": [
        {
          "name": "_arbitrator",
          "type": "address"
        },
        {
          "name": "_arbitratorExtraData",
          "type": "bytes"
        },
        {
          "name": "_metaEvidence",
          "type": "string"
        },
        {
          "name": "_blacklist",
          "type": "bool"
        },
        {
          "name": "_appendOnly",
          "type": "bool"
        },
        {
          "name": "_rechallengePossible",
          "type": "bool"
        },
        {
          "name": "_stake",
          "type": "uint256"
        },
        {
          "name": "_timeToChallenge",
          "type": "uint256"
        }
      ],
      "payable": false,
      "stateMutability": "nonpayable",
      "type": "constructor"
    },
    {
      "anonymous": false,
      "inputs": [
        {
          "indexed": true,
          "name": "submitter",
          "type": "address"
        },
        {
          "indexed": true,
          "name": "challenger",
          "type": "address"
        },
        {
          "indexed": true,
          "name": "value",
          "type": "bytes32"
        },
        {
          "indexed": false,
          "name": "status",
          "type": "uint8"
        },
        {
          "indexed": false,
          "name": "disputed",
          "type": "bool"
        }
      ],
      "name": "ItemStatusChange",
      "type": "event"
    },
    {
      "anonymous": false,
      "inputs": [
        {
          "indexed": true,
          "name": "_arbitrator",
          "type": "address"
        },
        {
          "indexed": true,
          "name": "_disputeID",
          "type": "uint256"
        },
        {
          "indexed": false,
          "name": "_ruling",
          "type": "uint256"
        }
      ],
      "name": "Ruling",
      "type": "event"
    },
    {
      "anonymous": false,
      "inputs": [
        {
          "indexed": true,
          "name": "_metaEvidenceID",
          "type": "uint256"
        },
        {
          "indexed": false,
          "name": "_evidence",
          "type": "string"
        }
      ],
      "name": "MetaEvidence",
      "type": "event"
    },
    {
      "anonymous": false,
      "inputs": [
        {
          "indexed": true,
          "name": "_arbitrator",
          "type": "address"
        },
        {
          "indexed": true,
          "name": "_disputeID",
          "type": "uint256"
        },
        {
          "indexed": false,
          "name": "_metaEvidenceID",
          "type": "uint256"
        }
      ],
      "name": "Dispute",
      "type": "event"
    },
    {
      "anonymous": false,
      "inputs": [
        {
          "indexed": true,
          "name": "_arbitrator",
          "type": "address"
        },
        {
          "indexed": true,
          "name": "_disputeID",
          "type": "uint256"
        },
        {
          "indexed": false,
          "name": "_party",
          "type": "address"
        },
        {
          "indexed": false,
          "name": "_evidence",
          "type": "string"
        }
      ],
      "name": "Evidence",
      "type": "event"
    },
    {
      "constant": false,
      "inputs": [
        {
          "name": "_value",
          "type": "bytes32"
        }
      ],
      "name": "requestRegistration",
      "outputs": [],
      "payable": true,
      "stateMutability": "payable",
      "type": "function"
    },
    {
      "constant": false,
      "inputs": [
        {
          "name": "_value",
          "type": "bytes32"
        }
      ],
      "name": "requestClearing",
      "outputs": [],
      "payable": true,
      "stateMutability": "payable",
      "type": "function"
    },
    {
      "constant": false,
      "inputs": [
        {
          "name": "_value",
          "type": "bytes32"
        }
      ],
      "name": "challengeRegistration",
      "outputs": [],
      "payable": true,
      "stateMutability": "payable",
      "type": "function"
    },
    {
      "constant": false,
      "inputs": [
        {
          "name": "_value",
          "type": "bytes32"
        }
      ],
      "name": "challengeClearing",
      "outputs": [],
      "payable": true,
      "stateMutability": "payable",
      "type": "function"
    },
    {
      "constant": false,
      "inputs": [
        {
          "name": "_value",
          "type": "bytes32"
        }
      ],
      "name": "appeal",
      "outputs": [],
      "payable": true,
      "stateMutability": "payable",
      "type": "function"
    },
    {
      "constant": false,
      "inputs": [
        {
          "name": "_value",
          "type": "bytes32"
        }
      ],
      "name": "executeRequest",
      "outputs": [],
      "payable": false,
      "stateMutability": "nonpayable",
      "type": "function"
    },
    {
      "constant": true,
      "inputs": [
        {
          "name": "_value",
          "type": "bytes32"
        }
      ],
      "name": "isPermitted",
      "outputs": [
        {
          "name": "allowed",
          "type": "bool"
        }
      ],
      "payable": false,
      "stateMutability": "view",
      "type": "function"
    },
    {
      "constant": true,
      "inputs": [],
      "name": "itemsCount",
      "outputs": [
        {
          "name": "count",
          "type": "uint256"
        }
      ],
      "payable": false,
      "stateMutability": "view",
      "type": "function"
    },
    {
      "constant": true,
      "inputs": [],
      "name": "itemsCounts",
      "outputs": [
        {
          "name": "pending",
          "type": "uint256"
        },
        {
          "name": "challenged",
          "type": "uint256"
        },
        {
          "name": "accepted",
          "type": "uint256"
        },
        {
          "name": "rejected",
          "type": "uint256"
        }
      ],
      "payable": false,
      "stateMutability": "view",
      "type": "function"
    },
    {
      "constant": true,
      "inputs": [
        {
          "name": "_cursor",
          "type": "bytes32"
        },
        {
          "name": "_count",
          "type": "uint256"
        },
        {
          "name": "_filter",
          "type": "bool[6]"
        },
        {
          "name": "_sort",
          "type": "bool"
        }
      ],
      "name": "queryItems",
      "outputs": [
        {
          "name": "values",
          "type": "bytes32[]"
        },
        {
          "name": "hasMore",
          "type": "bool"
        }
      ],
      "payable": false,
      "stateMutability": "view",
      "type": "function"
    }
  ],
  "bytecode": "0x60806040523480156200001157600080fd5b50604051620034e9380380620034e983398101806040528101908080519060200190929190805182019291906020018051820192919060200180519060200190929190805190602001909291908051906020019092919080519060200190929190805190602001909291905050508787816000806101000a81548173ffffffffffffffffffffffffffffffffffffffff021916908373ffffffffffffffffffffffffffffffffffffffff1602179055508060019080519060200190620000d9929190620001e6565b50505060007f61606860eb6c87306811e2695215385101daab53bd6ab4e9f9049aead9363c7d876040518080602001828103825283818151815260200191508051906020019080838360005b838110156200014257808201518184015260208101905062000125565b50505050905090810190601f168015620001705780820380516001836020036101000a031916815260200191505b509250505060405180910390a284600260006101000a81548160ff02191690831515021790555083600260016101000a81548160ff021916908315150217905550826002806101000a81548160ff0219169083151502179055508160038190555080600481905550505050505050505062000295565b828054600181600116156101000203166002900490600052602060002090601f016020900481019282601f106200022957805160ff19168380011785556200025a565b828001600101855582156200025a579182015b82811115620002595782518255916020019190600101906200023c565b5b5090506200026991906200026d565b5090565b6200029291905b808211156200028e57600081600090555060010162000274565b5090565b90565b61324480620002a56000396000f30060806040526004361061011d576000357c0100000000000000000000000000000000000000000000000000000000900463ffffffff1680630689d0ff146101225780630c7ac7b61461014d57806324642510146101dd578063311a6c561461020c578063342d9a04146102435780633a4b66f114610267578063409c88281461029257806348f343f3146102db578063675629fe146103b45780636cc6cde1146103e357806381a1fa021461043a5780638e604b1d1461047a57806393519d6614610550578063a4b5fa5614610574578063b783d6c7146105a3578063bc16272d146105c7578063beabdb7b146105eb578063c2bd9d9514610634578063e2c03ace1461067d578063e9c24166146106a8578063ece1de44146106d9575b600080fd5b34801561012e57600080fd5b506101376106fd565b6040518082815260200191505060405180910390f35b34801561015957600080fd5b50610162610703565b6040518080602001828103825283818151815260200191508051906020019080838360005b838110156101a2578082015181840152602081019050610187565b50505050905090810190601f1680156101cf5780820380516001836020036101000a031916815260200191505b509250505060405180910390f35b3480156101e957600080fd5b506101f26107a1565b604051808215151515815260200191505060405180910390f35b34801561021857600080fd5b5061024160048036038101908080359060200190929190803590602001909291905050506107b3565b005b610265600480360381019080803560001916906020019092919050505061086b565b005b34801561027357600080fd5b5061027c610f1c565b6040518082815260200191505060405180910390f35b34801561029e57600080fd5b506102bd60048036038101908080359060200190929190505050610f22565b60405180826000191660001916815260200191505060405180910390f35b3480156102e757600080fd5b5061030a6004803603810190808035600019169060200190929190505050610f3a565b6040518088600681111561031a57fe5b60ff1681526020018781526020018673ffffffffffffffffffffffffffffffffffffffff1673ffffffffffffffffffffffffffffffffffffffff1681526020018573ffffffffffffffffffffffffffffffffffffffff1673ffffffffffffffffffffffffffffffffffffffff1681526020018481526020018315151515815260200182815260200197505050505050505060405180910390f35b3480156103c057600080fd5b506103c9610fd6565b604051808215151515815260200191505060405180910390f35b3480156103ef57600080fd5b506103f8610fe9565b604051808273ffffffffffffffffffffffffffffffffffffffff1673ffffffffffffffffffffffffffffffffffffffff16815260200191505060405180910390f35b34801561044657600080fd5b5061044f61100e565b6040518085815260200184815260200183815260200182815260200194505050505060405180910390f35b34801561048657600080fd5b506104ee6004803603810190808035600019169060200190929190803590602001909291908060c00190600680602002604051908101604052809291908260066020028082843782019150505050509192919290803515159060200190929190505050611180565b604051808060200183151515158152602001828103825284818151815260200191508051906020019060200280838360005b8381101561053b578082015181840152602081019050610520565b50505050905001935050505060405180910390f35b6105726004803603810190808035600019169060200190929190505050611611565b005b34801561058057600080fd5b506105896119fd565b604051808215151515815260200191505060405180910390f35b6105c56004803603810190808035600019169060200190929190505050611a10565b005b6105e960048036038101908080356000191690602001909291905050506120c2565b005b3480156105f757600080fd5b5061061a6004803603810190808035600019169060200190929190505050612492565b604051808215151515815260200191505060405180910390f35b34801561064057600080fd5b5061065f60048036038101908080359060200190929190505050612554565b60405180826000191660001916815260200191505060405180910390f35b34801561068957600080fd5b50610692612577565b6040518082815260200191505060405180910390f35b3480156106b457600080fd5b506106d76004803603810190808035600019169060200190929190505050612584565b005b6106fb6004803603810190808035600019169060200190929190505050612847565b005b60045481565b60018054600181600116156101000203166002900480601f0160208091040260200160405190810160405280929190818152602001828054600181600116156101000203166002900480156107995780601f1061076e57610100808354040283529160200191610799565b820191906000526020600020905b81548152906001019060200180831161077c57829003601f168201915b505050505081565b6002809054906101000a900460ff1681565b6000809054906101000a900473ffffffffffffffffffffffffffffffffffffffff1673ffffffffffffffffffffffffffffffffffffffff163373ffffffffffffffffffffffffffffffffffffffff1614151561080e57600080fd5b813373ffffffffffffffffffffffffffffffffffffffff167f394027a5fa6e098a1191094d1719d6929b9abc535fcc0c8f448d6a4e75622276836040518082815260200191505060405180910390a361086782826129a2565b5050565b60008060056000846000191660001916815260200190815260200160002091506000809054906101000a900473ffffffffffffffffffffffffffffffffffffffff1673ffffffffffffffffffffffffffffffffffffffff1663f7434ea960016040518263ffffffff167c0100000000000000000000000000000000000000000000000000000000028152600401808060200182810382528381815460018160011615610100020316600290048152602001915080546001816001161561010002031660029004801561097e5780601f106109535761010080835404028352916020019161097e565b820191906000526020600020905b81548152906001019060200180831161096157829003601f168201915b505092505050602060405180830381600087803b15801561099e57600080fd5b505af11580156109b2573d6000803e3d6000fd5b505050506040513d60208110156109c857600080fd5b81019080805190602001909291905050509050806003540134101515156109ee57600080fd5b600560068111156109fb57fe5b8260000160009054906101000a900460ff166006811115610a1857fe5b1480610a4a5750600680811115610a2b57fe5b8260000160009054906101000a900460ff166006811115610a4857fe5b145b1515610a5557600080fd5b8160050160009054906101000a900460ff16151515610a7357600080fd5b808260040154101515610cee57338260030160006101000a81548173ffffffffffffffffffffffffffffffffffffffff021916908373ffffffffffffffffffffffffffffffffffffffff160217905550803403826004016000828254019250508190555060018260050160006101000a81548160ff0219169083151502179055506000809054906101000a900473ffffffffffffffffffffffffffffffffffffffff1673ffffffffffffffffffffffffffffffffffffffff1663c13517e182600260016040518463ffffffff167c01000000000000000000000000000000000000000000000000000000000281526004018083815260200180602001828103825283818154600181600116156101000203166002900481526020019150805460018160011615610100020316600290048015610bf05780601f10610bc557610100808354040283529160200191610bf0565b820191906000526020600020905b815481529060010190602001808311610bd357829003601f168201915b505093505050506020604051808303818588803b158015610c1057600080fd5b505af1158015610c24573d6000803e3d6000fd5b50505050506040513d6020811015610c3b57600080fd5b81019080805190602001909291905050508260060181905550826006600084600601548152602001908152602001600020816000191690555081600601546000809054906101000a900473ffffffffffffffffffffffffffffffffffffffff1673ffffffffffffffffffffffffffffffffffffffff167fc21357d76c2ee05713ed6e2edb9a5f60ab1e8748c56201385df30007f774f58d60006040518082815260200191505060405180910390a3610e20565b60056006811115610cfb57fe5b8260000160009054906101000a900460ff166006811115610d1857fe5b1415610d495760038260000160006101000a81548160ff02191690836006811115610d3f57fe5b0217905550610d70565b60008260000160006101000a81548160ff02191690836006811115610d6a57fe5b02179055505b8160020160009054906101000a900473ffffffffffffffffffffffffffffffffffffffff1673ffffffffffffffffffffffffffffffffffffffff166108fc83600401549081150290604051600060405180830381858888f1935050505050600082600401819055503373ffffffffffffffffffffffffffffffffffffffff166108fc349081150290604051600060405180830381858888f19350505050158015610e1e573d6000803e3d6000fd5b505b42826001018190555082600019168260030160009054906101000a900473ffffffffffffffffffffffffffffffffffffffff1673ffffffffffffffffffffffffffffffffffffffff168360020160009054906101000a900473ffffffffffffffffffffffffffffffffffffffff1673ffffffffffffffffffffffffffffffffffffffff167fa4beab79462e336293c2f229498d5942d3b4642806ab2820d6b7846d42d7e21a8560000160009054906101000a900460ff168660050160009054906101000a900460ff1660405180836006811115610ef957fe5b60ff168152602001821515151581526020019250505060405180910390a4505050565b60035481565b60066020528060005260406000206000915090505481565b60056020528060005260406000206000915090508060000160009054906101000a900460ff16908060010154908060020160009054906101000a900473ffffffffffffffffffffffffffffffffffffffff16908060030160009054906101000a900473ffffffffffffffffffffffffffffffffffffffff16908060040154908060050160009054906101000a900460ff16908060060154905087565b600260019054906101000a900460ff1681565b6000809054906101000a900473ffffffffffffffffffffffffffffffffffffffff1681565b600080600080600080600091505b600780549050821015611178576005600060078481548110151561103c57fe5b90600052602060002001546000191660001916815260200190815260200160002090508060050160009054906101000a900460ff161561108357848060010195505061116b565b6002600681111561109057fe5b8160000160009054906101000a900460ff1660068111156110ad57fe5b14806110e05750600460068111156110c157fe5b8160000160009054906101000a900460ff1660068111156110de57fe5b145b156110f257858060010196505061116a565b600360068111156110ff57fe5b8160000160009054906101000a900460ff16600681111561111c57fe5b141561112f578380600101945050611169565b6001600681111561113c57fe5b8160000160009054906101000a900460ff16600681111561115957fe5b14156111685782806001019350505b5b5b5b818060010192505061101c565b505090919293565b6060600080600080600080896040519080825280602002602001820160405280156111ba5781602001602082028038833980820191505090505b5096506000935060006001028b6000191614156111da576000945061123b565b600092505b60078054905083101561122a578a6000191660078481548110151561120057fe5b906000526020600020015460001916141561121d5782945061122a565b82806001019350506111df565b6000851415151561123a57600080fd5b5b60008514611262578761125857600185600780549050030161125d565b600185015b611275565b8761126e576001611271565b60005b60ff165b91505b8761128b57600780549050821115611294565b60078054905082105b15611603576005600060078a6112b15784600780549050036112b3565b845b8154811015156112bf57fe5b9060005260206000200154600019166000191681526020019081526020016000209050600060068111156112ef57fe5b8160000160009054906101000a900460ff16600681111561130c57fe5b14158015611341575060068081111561132157fe5b8160000160009054906101000a900460ff16600681111561133e57fe5b14155b801561157f575088600060068110151561135757fe5b602002015180156113c157506002600681111561137057fe5b8160000160009054906101000a900460ff16600681111561138d57fe5b14806113c05750600460068111156113a157fe5b8160000160009054906101000a900460ff1660068111156113be57fe5b145b5b806113f657508860016006811015156113d657fe5b602002015180156113f557508060050160009054906101000a900460ff165b5b80611444575088600260068110151561140b57fe5b6020020151801561144357506003600681111561142457fe5b8160000160009054906101000a900460ff16600681111561144157fe5b145b5b80611492575088600360068110151561145957fe5b6020020151801561149157506001600681111561147257fe5b8160000160009054906101000a900460ff16600681111561148f57fe5b145b5b8061150857508860046006811015156114a757fe5b6020020151801561150757503373ffffffffffffffffffffffffffffffffffffffff168160020160009054906101000a900473ffffffffffffffffffffffffffffffffffffffff1673ffffffffffffffffffffffffffffffffffffffff16145b5b8061157e575088600560068110151561151d57fe5b6020020151801561157d57503373ffffffffffffffffffffffffffffffffffffffff168160030160009054906101000a900473ffffffffffffffffffffffffffffffffffffffff1673ffffffffffffffffffffffffffffffffffffffff16145b5b5b156115f657898410156115ec576007886115a05782600780549050036115a2565b825b8154811015156115ae57fe5b906000526020600020015487858151811015156115c757fe5b90602001906020020190600019169081600019168152505083806001019450506115f5565b60019550611603565b5b8180600101925050611278565b505050505094509492505050565b60008060056000846000191660001916815260200190815260200160002091506000809054906101000a900473ffffffffffffffffffffffffffffffffffffffff1673ffffffffffffffffffffffffffffffffffffffff1663f7434ea960016040518263ffffffff167c010000000000000000000000000000000000000000000000000000000002815260040180806020018281038252838181546001816001161561010002031660029004815260200191508054600181600116156101000203166002900480156117245780601f106116f957610100808354040283529160200191611724565b820191906000526020600020905b81548152906001019060200180831161170757829003601f168201915b505092505050602060405180830381600087803b15801561174457600080fd5b505af1158015611758573d6000803e3d6000fd5b505050506040513d602081101561176e57600080fd5b81019080805190602001909291905050509050600260019054906101000a900460ff1615151561179d57600080fd5b806003540134101515156117b057600080fd5b600360068111156117bd57fe5b8260000160009054906101000a900460ff1660068111156117da57fe5b141561180b5760058260000160006101000a81548160ff0219169083600681111561180157fe5b021790555061186c565b6000600681111561181857fe5b8260000160009054906101000a900460ff16600681111561183557fe5b14156118665760068260000160006101000a81548160ff0219169083600681111561185c57fe5b021790555061186b565b600080fd5b5b6000826001015414156118ac5760078390806001815401808255809150509060018203906000526020600020016000909192909190915090600019169055505b338260020160006101000a81548173ffffffffffffffffffffffffffffffffffffffff021916908373ffffffffffffffffffffffffffffffffffffffff16021790555034826004016000828254019250508190555042826001018190555082600019168260030160009054906101000a900473ffffffffffffffffffffffffffffffffffffffff1673ffffffffffffffffffffffffffffffffffffffff168360020160009054906101000a900473ffffffffffffffffffffffffffffffffffffffff1673ffffffffffffffffffffffffffffffffffffffff167fa4beab79462e336293c2f229498d5942d3b4642806ab2820d6b7846d42d7e21a8560000160009054906101000a900460ff168660050160009054906101000a900460ff16604051808360068111156119da57fe5b60ff168152602001821515151581526020019250505060405180910390a4505050565b600260009054906101000a900460ff1681565b60008060056000846000191660001916815260200190815260200160002091506000809054906101000a900473ffffffffffffffffffffffffffffffffffffffff1673ffffffffffffffffffffffffffffffffffffffff1663f7434ea960016040518263ffffffff167c01000000000000000000000000000000000000000000000000000000000281526004018080602001828103825283818154600181600116156101000203166002900481526020019150805460018160011615610100020316600290048015611b235780601f10611af857610100808354040283529160200191611b23565b820191906000526020600020905b815481529060010190602001808311611b0657829003601f168201915b505092505050602060405180830381600087803b158015611b4357600080fd5b505af1158015611b57573d6000803e3d6000fd5b505050506040513d6020811015611b6d57600080fd5b8101908080519060200190929190505050905080600354013410151515611b9357600080fd5b60026006811115611ba057fe5b8260000160009054906101000a900460ff166006811115611bbd57fe5b1480611bf0575060046006811115611bd157fe5b8260000160009054906101000a900460ff166006811115611bee57fe5b145b1515611bfb57600080fd5b8160050160009054906101000a900460ff16151515611c1957600080fd5b808260040154101515611e9457338260030160006101000a81548173ffffffffffffffffffffffffffffffffffffffff021916908373ffffffffffffffffffffffffffffffffffffffff160217905550803403826004016000828254019250508190555060018260050160006101000a81548160ff0219169083151502179055506000809054906101000a900473ffffffffffffffffffffffffffffffffffffffff1673ffffffffffffffffffffffffffffffffffffffff1663c13517e182600260016040518463ffffffff167c01000000000000000000000000000000000000000000000000000000000281526004018083815260200180602001828103825283818154600181600116156101000203166002900481526020019150805460018160011615610100020316600290048015611d965780601f10611d6b57610100808354040283529160200191611d96565b820191906000526020600020905b815481529060010190602001808311611d7957829003601f168201915b505093505050506020604051808303818588803b158015611db657600080fd5b505af1158015611dca573d6000803e3d6000fd5b50505050506040513d6020811015611de157600080fd5b81019080805190602001909291905050508260060181905550826006600084600601548152602001908152602001600020816000191690555081600601546000809054906101000a900473ffffffffffffffffffffffffffffffffffffffff1673ffffffffffffffffffffffffffffffffffffffff167fc21357d76c2ee05713ed6e2edb9a5f60ab1e8748c56201385df30007f774f58d60006040518082815260200191505060405180910390a3611fc6565b60026006811115611ea157fe5b8260000160009054906101000a900460ff166006811115611ebe57fe5b1415611eef5760018260000160006101000a81548160ff02191690836006811115611ee557fe5b0217905550611f16565b60008260000160006101000a81548160ff02191690836006811115611f1057fe5b02179055505b8160020160009054906101000a900473ffffffffffffffffffffffffffffffffffffffff1673ffffffffffffffffffffffffffffffffffffffff166108fc83600401549081150290604051600060405180830381858888f1935050505050600082600401819055503373ffffffffffffffffffffffffffffffffffffffff166108fc349081150290604051600060405180830381858888f19350505050158015611fc4573d6000803e3d6000fd5b505b42826001018190555082600019168260030160009054906101000a900473ffffffffffffffffffffffffffffffffffffffff1673ffffffffffffffffffffffffffffffffffffffff168360020160009054906101000a900473ffffffffffffffffffffffffffffffffffffffff1673ffffffffffffffffffffffffffffffffffffffff167fa4beab79462e336293c2f229498d5942d3b4642806ab2820d6b7846d42d7e21a8560000160009054906101000a900460ff168660050160009054906101000a900460ff166040518083600681111561209f57fe5b60ff168152602001821515151581526020019250505060405180910390a4505050565b60008060056000846000191660001916815260200190815260200160002091506000809054906101000a900473ffffffffffffffffffffffffffffffffffffffff1673ffffffffffffffffffffffffffffffffffffffff1663f7434ea960016040518263ffffffff167c010000000000000000000000000000000000000000000000000000000002815260040180806020018281038252838181546001816001161561010002031660029004815260200191508054600181600116156101000203166002900480156121d55780601f106121aa576101008083540402835291602001916121d5565b820191906000526020600020905b8154815290600101906020018083116121b857829003601f168201915b505092505050602060405180830381600087803b1580156121f557600080fd5b505af1158015612209573d6000803e3d6000fd5b505050506040513d602081101561221f57600080fd5b810190808051906020019092919050505090508060035401341015151561224557600080fd5b6000600681111561225257fe5b8260000160009054906101000a900460ff16600681111561226f57fe5b14156122a05760048260000160006101000a81548160ff0219169083600681111561229657fe5b0217905550612301565b600160068111156122ad57fe5b8260000160009054906101000a900460ff1660068111156122ca57fe5b14156122fb5760028260000160006101000a81548160ff021916908360068111156122f157fe5b0217905550612300565b600080fd5b5b6000826001015414156123415760078390806001815401808255809150509060018203906000526020600020016000909192909190915090600019169055505b338260020160006101000a81548173ffffffffffffffffffffffffffffffffffffffff021916908373ffffffffffffffffffffffffffffffffffffffff16021790555034826004016000828254019250508190555042826001018190555082600019168260030160009054906101000a900473ffffffffffffffffffffffffffffffffffffffff1673ffffffffffffffffffffffffffffffffffffffff168360020160009054906101000a900473ffffffffffffffffffffffffffffffffffffffff1673ffffffffffffffffffffffffffffffffffffffff167fa4beab79462e336293c2f229498d5942d3b4642806ab2820d6b7846d42d7e21a8560000160009054906101000a900460ff168660050160009054906101000a900460ff166040518083600681111561246f57fe5b60ff168152602001821515151581526020019250505060405180910390a4505050565b60008060006005600085600019166000191681526020019081526020016000209150600260068111156124c157fe5b8260000160009054906101000a900460ff1660068111156124de57fe5b11158061252c57506006808111156124f257fe5b8260000160009054906101000a900460ff16600681111561250f57fe5b14801561252b57508160050160009054906101000a900460ff16155b5b9050600260009054906101000a900460ff1661254957801561254b565b805b92505050919050565b60078181548110151561256357fe5b906000526020600020016000915090505481565b6000600780549050905090565b6000600560008360001916600019168152602001908152602001600020905060045481600101544203101515156125ba57600080fd5b8060050160009054906101000a900460ff161515156125d857600080fd5b600260068111156125e557fe5b8160000160009054906101000a900460ff16600681111561260257fe5b148061263557506004600681111561261657fe5b8160000160009054906101000a900460ff16600681111561263357fe5b145b156126655760038160000160006101000a81548160ff0219169083600681111561265b57fe5b02179055506126f7565b6005600681111561267257fe5b8160000160009054906101000a900460ff16600681111561268f57fe5b14806126c157506006808111156126a257fe5b8160000160009054906101000a900460ff1660068111156126bf57fe5b145b156126f15760018160000160006101000a81548160ff021916908360068111156126e757fe5b02179055506126f6565b600080fd5b5b8060020160009054906101000a900473ffffffffffffffffffffffffffffffffffffffff1673ffffffffffffffffffffffffffffffffffffffff166108fc82600401549081150290604051600060405180830381858888f193505050505081600019168160030160009054906101000a900473ffffffffffffffffffffffffffffffffffffffff1673ffffffffffffffffffffffffffffffffffffffff168260020160009054906101000a900473ffffffffffffffffffffffffffffffffffffffff1673ffffffffffffffffffffffffffffffffffffffff167fa4beab79462e336293c2f229498d5942d3b4642806ab2820d6b7846d42d7e21a8460000160009054906101000a900460ff168560050160009054906101000a900460ff166040518083600681111561282557fe5b60ff168152602001821515151581526020019250505060405180910390a45050565b600060056000836000191660001916815260200190815260200160002090506000809054906101000a900473ffffffffffffffffffffffffffffffffffffffff1673ffffffffffffffffffffffffffffffffffffffff166349912f8834836006015460016040518463ffffffff167c010000000000000000000000000000000000000000000000000000000002815260040180838152602001806020018281038252838181546001816001161561010002031660029004815260200191508054600181600116156101000203166002900480156129655780601f1061293a57610100808354040283529160200191612965565b820191906000526020600020905b81548152906001019060200180831161294857829003601f168201915b505093505050506000604051808303818588803b15801561298557600080fd5b505af1158015612999573d6000803e3d6000fd5b50505050505050565b60008060006005600060066000888152602001908152602001600020546000191660001916815260200190815260200160002092508260050160009054906101000a900460ff1615156129f457600080fd5b600160ff16841415612d76576002809054906101000a900460ff168015612a42575060046006811115612a2357fe5b8360000160009054906101000a900460ff166006811115612a4057fe5b145b15612c26576000809054906101000a900473ffffffffffffffffffffffffffffffffffffffff1673ffffffffffffffffffffffffffffffffffffffff1663f7434ea960016040518263ffffffff167c01000000000000000000000000000000000000000000000000000000000281526004018080602001828103825283818154600181600116156101000203166002900481526020019150805460018160011615610100020316600290048015612b3a5780601f10612b0f57610100808354040283529160200191612b3a565b820191906000526020600020905b815481529060010190602001808311612b1d57829003601f168201915b505092505050602060405180830381600087803b158015612b5a57600080fd5b505af1158015612b6e573d6000803e3d6000fd5b505050506040513d6020811015612b8457600080fd5b81019080805190602001909291905050509150826004015460035483011015612c2157600354820183600401540390508260020160009054906101000a900473ffffffffffffffffffffffffffffffffffffffff1673ffffffffffffffffffffffffffffffffffffffff166108fc829081150290604051600060405180830381858888f19350505050508083600401600082825403925050819055505b612d71565b60026006811115612c3357fe5b8360000160009054906101000a900460ff166006811115612c5057fe5b1480612c83575060046006811115612c6457fe5b8360000160009054906101000a900460ff166006811115612c8157fe5b145b15612ceb578260020160009054906101000a900473ffffffffffffffffffffffffffffffffffffffff1673ffffffffffffffffffffffffffffffffffffffff166108fc84600401549081150290604051600060405180830381858888f1935050505050612d4a565b8260030160009054906101000a900473ffffffffffffffffffffffffffffffffffffffff1673ffffffffffffffffffffffffffffffffffffffff166108fc84600401549081150290604051600060405180830381858888f19350505050505b60038360000160006101000a81548160ff02191690836006811115612d6b57fe5b02179055505b613084565b600260ff16841415612ed057600680811115612d8e57fe5b8360000160009054906101000a900460ff166006811115612dab57fe5b1480612dde575060056006811115612dbf57fe5b8360000160009054906101000a900460ff166006811115612ddc57fe5b145b15612e46578260020160009054906101000a900473ffffffffffffffffffffffffffffffffffffffff1673ffffffffffffffffffffffffffffffffffffffff166108fc84600401549081150290604051600060405180830381858888f1935050505050612ea5565b8260030160009054906101000a900473ffffffffffffffffffffffffffffffffffffffff1673ffffffffffffffffffffffffffffffffffffffff166108fc84600401549081150290604051600060405180830381858888f19350505050505b60018360000160006101000a81548160ff02191690836006811115612ec657fe5b0217905550613083565b60026006811115612edd57fe5b8360000160009054906101000a900460ff166006811115612efa57fe5b1415612f2b5760018360000160006101000a81548160ff02191690836006811115612f2157fe5b0217905550612fae565b60056006811115612f3857fe5b8360000160009054906101000a900460ff166006811115612f5557fe5b1415612f865760038360000160006101000a81548160ff02191690836006811115612f7c57fe5b0217905550612fad565b60008360000160006101000a81548160ff02191690836006811115612fa757fe5b02179055505b5b8260020160009054906101000a900473ffffffffffffffffffffffffffffffffffffffff1673ffffffffffffffffffffffffffffffffffffffff166108fc60028560040154811515612ffc57fe5b049081150290604051600060405180830381858888f19350505050508260030160009054906101000a900473ffffffffffffffffffffffffffffffffffffffff1673ffffffffffffffffffffffffffffffffffffffff166108fc6002856004015481151561306657fe5b049081150290604051600060405180830381858888f19350505050505b5b60008360050160006101000a81548160ff0219169083151502179055506002809054906101000a900460ff1680156130e35750600460068111156130c457fe5b8360000160009054906101000a900460ff1660068111156130e157fe5b145b80156130f25750600160ff1684145b1561310557428360010181905550613110565b600083600401819055505b6006600086815260200190815260200160002054600019168360030160009054906101000a900473ffffffffffffffffffffffffffffffffffffffff1673ffffffffffffffffffffffffffffffffffffffff168460020160009054906101000a900473ffffffffffffffffffffffffffffffffffffffff1673ffffffffffffffffffffffffffffffffffffffff167fa4beab79462e336293c2f229498d5942d3b4642806ab2820d6b7846d42d7e21a8660000160009054906101000a900460ff168760050160009054906101000a900460ff16604051808360068111156131f357fe5b60ff168152602001821515151581526020019250505060405180910390a450505050505600a165627a7a723058203d6606c526421574e55981c419abc29d59f0549614783aaa1b79bf07ca0ca7060029",
  "source": " /**\n *  @title Arbitrable Permission List\n *  @author Clment Lesaege - <clement@lesaege.com>\n *  This code hasn't undertaken bug bounty programs yet.\n */\n\npragma solidity ^0.4.23;\n\nimport \"../arbitration/Arbitrable.sol\";\nimport \"./PermissionInterface.sol\";\n\n/**\n *  @title Arbitrable Permission List\n *  @dev This is an arbitrator curated registry. Anyone can post an item with a deposit. If no one complains within a defined time period, the item is added to the registry.\n *  Anyone can complain and also post a deposit. If someone does, a dispute is created. The winner of the dispute gets the deposit of the other party and the item is added or removed accordingly.\n *  To make a request, parties have to deposit a stake and the arbitration fees. If the arbitration fees change between the submitter's payment and the challenger's payment, a part of the submitter stake can be used as an arbitration fee deposit.\n *  In case the arbitrator refuses to rule, the item is put in the initial absent status and the balance is split equally between parties.\n */\ncontract ArbitrablePermissionList is PermissionInterface, Arbitrable {\n    /* Enums */\n\n    enum ItemStatus {\n        Absent, // The item has never been submitted.\n        Cleared, // The item has been submitted and the dispute resolution process determined it should not be added or a clearing request has been submitted and not contested.\n        Resubmitted, // The item has been cleared but someone has resubmitted it.\n        Registered, // The item has been submitted and the dispute resolution process determined it should be added or the submission was never contested.\n        Submitted, // The item has been submitted.\n        ClearingRequested, // The item is registered, but someone has requested to remove it.\n        PreventiveClearingRequested // The item has never been registered, but someone asked to clear it preemptively to avoid it being shown as not registered during the dispute resolution process.\n    }\n\n    /* Structs */\n\n    struct Item {\n        ItemStatus status; // Status of the item.\n        uint lastAction; // Time of the last action.\n        address submitter; // Address of the submitter of the item status change request, if any.\n        address challenger; // Address of the challenger, if any.\n        uint balance; // The total amount of funds to be given to the winner of a potential dispute. Includes stake and reimbursement of arbitration fees.\n        bool disputed; // True if a dispute is taking place.\n        uint disputeID; // ID of the dispute, if any.\n    }\n\n    /* Events */\n\n    /**\n     *  @dev Called when the item's status changes or when it is contested/resolved.\n     *  @param submitter Address of the submitter, if any.\n     *  @param challenger Address of the challenger, if any.\n     *  @param value The value of the item.\n     *  @param status The status of the item.\n     *  @param disputed The item is being disputed.\n     */\n    event ItemStatusChange(\n        address indexed submitter,\n        address indexed challenger,\n        bytes32 indexed value,\n        ItemStatus status,\n        bool disputed\n    );\n\n    /* Storage */\n\n    // Settings\n    bool public blacklist; // True if the list should function as a blacklist, false if it should function as a whitelist.\n    bool public appendOnly; // True if the list should be append only.\n    bool public rechallengePossible; // True if items winning their disputes can be challenged again.\n    uint public stake; // The stake to put to submit/clear/challenge and item in addition of arbitration fees.\n    uint public timeToChallenge; // The time before which an action is executable if not challenged.\n\n    // Ruling Options\n    uint8 constant REGISTER = 1;\n    uint8 constant CLEAR = 2;\n\n    // Items\n    mapping(bytes32 => Item) public items;\n    mapping(uint => bytes32) public disputeIDToItem;\n    bytes32[] public itemsList;\n\n    /* Constructor */\n\n    /**\n     *  @dev Constructs the arbitrable permission list and sets the type.\n     *  @param _arbitrator The chosen arbitrator.\n     *  @param _arbitratorExtraData Extra data for the arbitrator contract.\n     *  @param _metaEvidence The URL of the meta evidence object.\n     *  @param _blacklist True if the list should function as a blacklist, false if it should function as a whitelist.\n     *  @param _appendOnly True if the list should be append only.\n     *  @param _rechallengePossible True if it is possible to challenge again a submission which has won a dispute.\n     *  @param _stake The amount in Weis of deposit required for a submission or a challenge in addition of the arbitration fees.\n     *  @param _timeToChallenge The time in seconds, other parties have to challenge.\n     */\n    constructor(\n        Arbitrator _arbitrator,\n        bytes _arbitratorExtraData,\n        string _metaEvidence,\n        bool _blacklist,\n        bool _appendOnly,\n        bool _rechallengePossible,\n        uint _stake,\n        uint _timeToChallenge) Arbitrable(_arbitrator, _arbitratorExtraData) public {\n        emit MetaEvidence(0, _metaEvidence);\n        blacklist = _blacklist;\n        appendOnly = _appendOnly;\n        rechallengePossible = _rechallengePossible;\n        stake = _stake;\n        timeToChallenge = _timeToChallenge;\n    }\n\n    /* Public */\n\n    /**\n     *  @dev Request for an item to be registered.\n     *  @param _value The value of the item to register.\n     */\n    function requestRegistration(bytes32 _value) public payable {\n        Item storage item = items[_value];\n        uint arbitratorCost = arbitrator.arbitrationCost(arbitratorExtraData);\n        require(msg.value >= stake + arbitratorCost);\n\n        if (item.status == ItemStatus.Absent)\n            item.status = ItemStatus.Submitted;\n        else if (item.status == ItemStatus.Cleared)\n            item.status = ItemStatus.Resubmitted;\n        else\n            revert(); // If the item is neither Absent nor Cleared, it is not possible to request registering it.\n\n        if (item.lastAction == 0) {\n            itemsList.push(_value);\n        }\n\n        item.submitter = msg.sender;\n        item.balance += msg.value;\n        item.lastAction = now;\n\n        emit ItemStatusChange(item.submitter, item.challenger, _value, item.status, item.disputed);\n    }\n\n    /**\n     *  @dev Request an item to be cleared.\n     *  @param _value The value of the item to clear.\n     */\n    function requestClearing(bytes32 _value) public payable {\n        Item storage item = items[_value];\n        uint arbitratorCost = arbitrator.arbitrationCost(arbitratorExtraData);\n        require(!appendOnly);\n        require(msg.value >= stake + arbitratorCost);\n\n        if (item.status == ItemStatus.Registered)\n            item.status = ItemStatus.ClearingRequested;\n        else if (item.status == ItemStatus.Absent)\n            item.status = ItemStatus.PreventiveClearingRequested;\n        else\n            revert(); // If the item is neither Registered nor Absent, it is not possible to request clearing it.\n        \n        if (item.lastAction == 0) {\n            itemsList.push(_value);\n        }\n\n        item.submitter = msg.sender;\n        item.balance += msg.value;\n        item.lastAction = now;\n\n        emit ItemStatusChange(item.submitter, item.challenger, _value, item.status, item.disputed);\n    }\n\n    /**\n     *  @dev Challenge a registration request.\n     *  @param _value The value of the item subject to the registering request.\n     */\n    function challengeRegistration(bytes32 _value) public payable {\n        Item storage item = items[_value];\n        uint arbitratorCost = arbitrator.arbitrationCost(arbitratorExtraData);\n        require(msg.value >= stake + arbitratorCost);\n        require(item.status == ItemStatus.Resubmitted || item.status == ItemStatus.Submitted);\n        require(!item.disputed);\n\n        if (item.balance >= arbitratorCost) { // In the general case, create a dispute.\n            item.challenger = msg.sender;\n            item.balance += msg.value-arbitratorCost;\n            item.disputed = true;\n            item.disputeID = arbitrator.createDispute.value(arbitratorCost)(2,arbitratorExtraData);\n            disputeIDToItem[item.disputeID] = _value;\n            emit Dispute(arbitrator, item.disputeID, 0);\n        } else { // In the case the arbitration fees increased so much that the deposit of the requester is not high enough. Cancel the request.\n            if (item.status == ItemStatus.Resubmitted)\n                item.status = ItemStatus.Cleared;\n            else\n                item.status = ItemStatus.Absent;\n\n            item.submitter.send(item.balance); // Deliberate use of send in order to not block the contract in case of reverting fallback.\n            item.balance = 0;\n            msg.sender.transfer(msg.value);\n        }\n\n        item.lastAction = now;\n\n        emit ItemStatusChange(item.submitter, item.challenger, _value, item.status, item.disputed);\n    }\n\n    /**\n     *  @dev Challenge a clearing request.\n     *  @param _value The value of the item subject to the clearing request.\n     */\n    function challengeClearing(bytes32 _value) public payable {\n        Item storage item = items[_value];\n        uint arbitratorCost = arbitrator.arbitrationCost(arbitratorExtraData);\n        require(msg.value >= stake + arbitratorCost);\n        require(item.status == ItemStatus.ClearingRequested || item.status == ItemStatus.PreventiveClearingRequested);\n        require(!item.disputed);\n\n        if (item.balance >= arbitratorCost) { // In the general case, create a dispute.\n            item.challenger = msg.sender;\n            item.balance += msg.value-arbitratorCost;\n            item.disputed = true;\n            item.disputeID = arbitrator.createDispute.value(arbitratorCost)(2,arbitratorExtraData);\n            disputeIDToItem[item.disputeID] = _value;\n            emit Dispute(arbitrator, item.disputeID, 0);\n        } else { // In the case the arbitration fees increased so much that the deposit of the requester is not high enough. Cancel the request.\n            if (item.status == ItemStatus.ClearingRequested)\n                item.status = ItemStatus.Registered;\n            else\n                item.status = ItemStatus.Absent;\n\n            item.submitter.send(item.balance); // Deliberate use of send in order to not block the contract in case of reverting fallback.\n            item.balance = 0;\n            msg.sender.transfer(msg.value);\n        }\n\n        item.lastAction = now;\n\n        emit ItemStatusChange(item.submitter, item.challenger, _value, item.status, item.disputed);\n    }\n\n    /**\n     *  @dev Appeal ruling. Anyone can appeal to prevent a malicious actor from challenging its own submission and loosing on purpose.\n     *  @param _value The value of the item with the dispute to appeal on.\n     */\n    function appeal(bytes32 _value) public payable {\n        Item storage item = items[_value];\n        arbitrator.appeal.value(msg.value)(item.disputeID,arbitratorExtraData); // Appeal, no need to check anything as the arbitrator does it.\n    }\n\n    /**\n     *  @dev Execute a request after the time for challenging it has passed. Can be called by anyone.\n     *  @param _value The value of the item with the request to execute.\n     */\n    function executeRequest(bytes32 _value) public {\n        Item storage item = items[_value];\n        require(now - item.lastAction >= timeToChallenge);\n        require(!item.disputed);\n\n        if (item.status == ItemStatus.Resubmitted || item.status == ItemStatus.Submitted)\n            item.status = ItemStatus.Registered;\n        else if (item.status == ItemStatus.ClearingRequested || item.status == ItemStatus.PreventiveClearingRequested)\n            item.status = ItemStatus.Cleared;\n        else\n            revert();\n\n        item.submitter.send(item.balance); // Deliberate use of send in order to not block the contract in case of reverting fallback.\n\n        emit ItemStatusChange(item.submitter, item.challenger, _value, item.status, item.disputed);\n    }\n\n    /* Public Views */\n\n    /**\n     *  @dev Return true if the item is allowed. \n     *  We consider the item to be in the list if its status is contested and it has not won a dispute previously.\n     *  @param _value The value of the item to check.\n     *  @return allowed True if the item is allowed, false otherwise.\n     */\n    function isPermitted(bytes32 _value) public view returns (bool allowed) {\n        Item storage item = items[_value];\n        bool _excluded = item.status <= ItemStatus.Resubmitted ||\n            (item.status == ItemStatus.PreventiveClearingRequested && !item.disputed);\n        return blacklist ? _excluded : !_excluded; // Items excluded from blacklist should return true.\n    }\n\n    /* Internal */\n\n    /**\n     *  @dev Execute the ruling of a dispute.\n     *  @param _disputeID ID of the dispute in the Arbitrator contract.\n     *  @param _ruling Ruling given by the arbitrator. Note that 0 is reserved for \"Not able/wanting to make a decision\".\n     */\n    function executeRuling(uint _disputeID, uint _ruling) internal {\n        Item storage item = items[disputeIDToItem[_disputeID]];\n        require(item.disputed);\n\n        if (_ruling == REGISTER) {\n            if (rechallengePossible && item.status==ItemStatus.Submitted) {\n                uint arbitratorCost = arbitrator.arbitrationCost(arbitratorExtraData);\n                if (arbitratorCost + stake < item.balance) { // Check that the balance is enough.\n                    uint toSend = item.balance - (arbitratorCost + stake);\n                    item.submitter.send(toSend); // Keep the arbitration cost and the stake and send the remaining to the submitter.\n                    item.balance -= toSend;\n                }\n            } else {\n                if (item.status==ItemStatus.Resubmitted || item.status==ItemStatus.Submitted)\n                    item.submitter.send(item.balance); // Deliberate use of send in order to not block the contract in case of reverting fallback.\n                else\n                    item.challenger.send(item.balance);\n                    \n                item.status = ItemStatus.Registered;\n            }\n        } else if (_ruling == CLEAR) {\n            if (item.status == ItemStatus.PreventiveClearingRequested || item.status == ItemStatus.ClearingRequested)\n                item.submitter.send(item.balance);\n            else\n                item.challenger.send(item.balance);\n\n            item.status = ItemStatus.Cleared;\n        } else { // Split the balance 50-50 and give the item the initial status.\n            if (item.status==ItemStatus.Resubmitted)\n                item.status = ItemStatus.Cleared;\n            else if (item.status==ItemStatus.ClearingRequested)\n                item.status = ItemStatus.Registered;\n            else\n                item.status = ItemStatus.Absent;\n            item.submitter.send(item.balance / 2);\n            item.challenger.send(item.balance / 2);\n        }\n        \n        item.disputed = false;\n        if (rechallengePossible && item.status==ItemStatus.Submitted && _ruling==REGISTER) \n            item.lastAction=now; // If the item can be rechallenged, update the time and keep the remaining balance.\n        else\n            item.balance = 0;\n\n        emit ItemStatusChange(item.submitter, item.challenger, disputeIDToItem[_disputeID], item.status, item.disputed);\n    }\n\n    /* Interface Views */\n\n    /**\n     *  @dev Return the number of items in the list.\n     *  @return The number of items in the list.\n     */\n    function itemsCount() public view returns (uint count) {\n        count = itemsList.length;\n    }\n\n    /**\n     *  @dev Return the numbers of items in the list per status.\n     *  @return The numbers of items in the list per status.\n     */\n    function itemsCounts() public view returns (uint pending, uint challenged, uint accepted, uint rejected) {\n        for (uint i = 0; i < itemsList.length; i++) {\n            Item storage item = items[itemsList[i]];\n            if (item.disputed) challenged++;\n            else if (item.status == ItemStatus.Resubmitted || item.status == ItemStatus.Submitted) pending++;\n            else if (item.status == ItemStatus.Registered) accepted++;\n            else if (item.status == ItemStatus.Cleared) rejected++;\n        }\n    }\n\n    /**\n     *  @dev Return the values of the items the query finds.\n     *  This function is O(n) at worst, where n is the number of items. This could exceed the gas limit, therefore this function should only be used for interface display and not by other contracts.\n     *  @param _cursor The pagination cursor.\n     *  @param _count The number of items to return.\n     *  @param _filter The filter to use.\n     *  @param _sort The sort order to use.\n     *  @return The values of the items found and wether there are more items for the current filter and sort.\n     */\n    function queryItems(bytes32 _cursor, uint _count, bool[6] _filter, bool _sort) public view returns (bytes32[] values, bool hasMore) {\n        uint _cursorIndex;\n        values = new bytes32[](_count);\n        uint _index = 0;\n\n        if (_cursor == 0)\n            _cursorIndex = 0;\n        else {\n            for (uint j = 0; j < itemsList.length; j++) {\n                if (itemsList[j] == _cursor) {\n                    _cursorIndex = j;\n                    break;\n                }\n            }\n            require(_cursorIndex != 0);\n        }\n\n        for (\n                uint i = _cursorIndex == 0 ? (_sort ? 0 : 1) : (_sort ? _cursorIndex + 1 : itemsList.length - _cursorIndex + 1);\n                _sort ? i < itemsList.length : i <= itemsList.length;\n                i++\n            ) { // Oldest or newest first\n            Item storage item = items[itemsList[_sort ? i : itemsList.length - i]];\n            if (\n                item.status != ItemStatus.Absent && item.status != ItemStatus.PreventiveClearingRequested && (\n                    (_filter[0] && (item.status == ItemStatus.Resubmitted || item.status == ItemStatus.Submitted)) || // Pending\n                    (_filter[1] && item.disputed) || // Challenged\n                    (_filter[2] && item.status == ItemStatus.Registered) || // Accepted\n                    (_filter[3] && item.status == ItemStatus.Cleared) || // Rejected\n                    (_filter[4] && item.submitter == msg.sender) || // My Submissions\n                    (_filter[5] && item.challenger == msg.sender) // My Challenges\n                )\n            ) {\n                if (_index < _count) {\n                    values[_index] = itemsList[_sort ? i : itemsList.length - i];\n                    _index++;\n                } else {\n                    hasMore = true;\n                    break;\n                }\n            }\n        }\n    }\n}\n",
  "sourcePath": "/Users/epiqueras/Work/kleros/kleros-interaction/contracts/standard/permission/ArbitrablePermissionList.sol",
  "compiler": {
    "name": "solc",
    "version": "0.4.24+commit.e67f0147.Emscripten.clang"
  },
  "schemaVersion": "2.0.1",
  "updatedAt": "2018-07-30T19:18:49.001Z"
}